:020000040800F2
:100000007847002081020008EB2900082927000812
:10001000E929000855080008E52F00080000000045
:10002000000000000000000000000000C101000806
:1000300005090008000000001D020008CD2B000883
:100040009B0200089B0200089B0200089B0200081C
:100050009B0200089B0200089B0200089B0200080C
:100060009B0200089B0200089B0200089B020008FC
:100070009B0200089B0200089B0200089B020008EC
:1000800065080008710800089B0200089B02000830
:10009000590800089B0200089B0200089B02000808
:1000A0009B020008992C00089B0200089B02000894
:1000B0009B0200089B0200089B0200089B020008AC
:1000C0009B0200089B0200089B0200089B0200089C
:1000D0009B020008CD2F0008D92F00089B020008C2
:1000E0009B0200089B0200089B0200089B0200087C
:1000F0009B0200089B0200089B0200089B0200086C
:100100009B0200089B0200089B0200089B0200085B
:100110009B0200089B0200089B0200089B0200084B
:100120009B0200089B0200087D0800089B02000853
:100130009B0200089B0200089B0200089B0200082B
:100140009B0200089B0200089B0200089B0200081B
:100150009B0200089B0200089B0200089B0200080B
:100160009B0200089B0200089B0200089B020008FB
:100170009B0200089B0200089B0200080000000090
:100180009B0200089B0200089B0200089B020008DB
:100190009B0200089B0200089B0200089B020008CB
:1001A00000000000000000009B020008DFF80CD0F7
:1001B00000F03EFB00480047B539000878470020B2
:1001C0002C4B19680868B0E8F04F80F30988BFF33A
:1001D0006F8F4FF0000080F311887047000000001F
:1001E00008480068006880F308884FF0000080F33A
:1001F000148862B661B6BFF34F8FBFF36F8F00DF15
:1002000000BF00BF08ED00E0DFF80C00016841F41A
:1002100070010160704700BF88ED00E0EFF30980D6
:10022000BFF36F8F134B1A681EF0100F08BF20ED3D
:10023000108A20E9F04F106009B44FF0500080F3AD
:100240001188BFF34F8FBFF36F8F04F0FFF84FF0AB
:10025000000080F3118809BC19680868B0E8F04F05
:100260001EF0100F08BFB0EC108A80F30988BFF3AE
:100270006F8F704738000020EFF305807047000053
:100280000648804706480047FEE7FEE7FEE7FEE730
:10029000FEE7FEE7FEE7FEE7FEE7FEE77D2C00084F
:1002A000AD0100082DE9F05F0546002092469B460F
:1002B00088460646814640241BE02846414647467C
:1002C000224600F0AEF953465A46C01A914110D367
:1002D00011461846224600F095F92D1A67EB0108E1
:1002E0004F4622460120002100F08CF917EB00094F
:1002F0004E41201EA4F10104DFDC484631462A4667
:100300004346BDE8F09F40EA01039B0703D009E0A4
:1003100008C9121F08C0042AFAD203E011F8013BF1
:1003200000F8013B521EF9D27047D2B201E000F84A
:10033000012B491EFBD270470022F6E710B5134689
:100340000A4604461946FFF7F0FF204610BD2DE986
:10035000FE4F804681EA0300C00F0C46009021F05A
:10036000004123F00045B8EB0200A94105D2404608
:10037000214690461C460B46024623F0004010439F
:1003800047D0270DC7F30A00C3F30A510290401A61
:10039000019040286BDAC3F3130040F4801B0098EF
:1003A000924620B10023D2EB030A63EB0B0B0198BA
:1003B0005946C0F14002504600F024F906460D4669
:1003C00050465946019A00F03CF910EB0800614193
:1003D000002487EA115284EAE7731A4340D0009A56
:1003E00062B3019A012A4FEA075215DC001B61EB48
:1003F00002014FF0004202EA0752CDE90042001C20
:1004000041F5801132462B4600F03CF903B0BDE8BF
:10041000F08F40462146F9E7001B61EB0201001C0A
:1004200041F5801300185B412018A2F5001747EB37
:10043000030140EAD570B6196D4111E06D084FEA2D
:10044000360645EAC0754FEA0752001B61EB020110
:10045000001C41F5801149084FEA30000019514154
:1004600032462B4603B0BDE8F04F00F0FCB80098D0
:10047000012240000023D0EB020263EBE0730098FE
:1004800021464FEAE074B8EB000061EB0401E9E7B4
:1004900083F000435BE781F0004158E72DE9FE4F10
:1004A00081EA030404F0004421F0004100944FF07D
:1004B000000B23F0004350EA01045ED052EA03042B
:1004C0005BD0C3F30A54C1F30A552C44A4F2F334AD
:1004D0000194A0FB0254C1F3130141F48011C3F352
:1004E000130343F4801301FB024400FB034E840A10
:1004F000970A44EA815447EA8357A4FB07680295A8
:100500008D0A05FB07854FEA932C04FB0C54270545
:10051000029D4FEA065847EA1637B5EB08056EEB21
:10052000070C870E920E47EA811742EA8312A7FB57
:100530000201B6EB0B0164EB00042B0D43EA0C3314
:100540005E1844EB1C50DA465146E7FB0201C5F346
:1005500013044FEA0B3343EA14534FEA0432019C6D
:1005600043EA0603A4F10C040294009CCDE900B414
:1005700000F088F803B0BDE8F08F00200146F9E7ED
:1005800000F0004230F000400AD0C10D01F560716A
:10059000C0F3160042EA0151C208400711437047F8
:1005A000002001467047000030B5041E71F10004C0
:1005B00004DB4FF00044404264EB0101141E73F170
:1005C000000405DB1C464FF00043524263EB04037A
:1005D000994208BF904230BD30B50B46014600201D
:1005E0002022012409E021FA02F59D4205D303FAF5
:1005F00002F5491B04FA02F52844151EA2F1010276
:10060000F1DC30BD202A04DB203A00FA02F10020A0
:1006100070479140C2F1200320FA03F31943904040
:100620007047202A04DB203A21FA02F000217047AB
:1006300021FA02F3D040C2F120029140084319464A
:100640007047202A06DBCB17203A41FA02F043EA32
:10065000E07306E041FA02F3D040C2F1200291407B
:1006600008431946704710B5141E73F1000408DAE8
:10067000401C41F1000192185B411A4301D120F066
:10068000010010BD2DE9F04D92469B4611B1B1FA23
:1006900081F202E0B0FA80F220329046FFF7B2FF1A
:1006A00004460F4640EA0A0041EA0B0153465A4607
:1006B000084313D0114653EA010019D0C8F1400293
:1006C0005046FFF7AEFF05460E4650465946424695
:1006D000FFF798FF084305D0012004E02046394683
:1006E000BDE8F08D0020054346EAE0762C43374311
:1006F0000A986305E40AA0EB08000022FD0A44EA18
:1007000047540A3002D500200146E9E701051019D7
:100710006941DDE9084500196941BDE8F04DA2E7EE
:100720002DE9F04D81EA030404F0004B21F000456F
:1007300014464FF0000A23F0004150EA050220D091
:1007400054EA01021DD0C5F30A570246C5F313034C
:10075000C1F31300C1F30A5640F4801543F480132B
:10076000A7EB0608101BD64608F2FD3873EB050010
:1007700002D308F1010801E092185B41B8F1000FC3
:1007800003DA00200146BDE8F08D00204FF480110F
:10079000064684460EE0171B73EB050705D3121BB4
:1007A00063EB050306434CEA010C49084FEA3000AD
:1007B00092185B4150EA0107EDD152EA030012D0D2
:1007C00082EA040083EA0501084305D0101BAB410F
:1007D00006D20122002306E000224FF0004302E08F
:1007E0006FF0010253101AEB06004CEB085110EBAE
:1007F0000A0041EB0B01BDE8F04DFFF734BFC1F338
:100800000A52C1F3130140F2FF3341F480119A42BE
:1008100002DA00200146704740F233439A42A2F2C6
:10082000334202DC5242FFF7FCBEFFF7EBBE000092
:10083000064C074D06E0E06840F0010394E807002D
:1008400098471034AC42F6D3FFF7B4FC5048000888
:1008500070480008FEE70000014800F062B900009F
:10086000F0030020014800F01FBC000080050020BC
:10087000014800F019BC0000E0050020014800F02C
:1008800013BC00002005002001681823CAB2103AEA
:10089000B2FBF3F2054B6FF30901032A9B5CC365BE
:1008A00000D9091D81650846704700003C480008D2
:1008B00010B5014600208B698A6A4FF0C07453B1AD
:1008C000B3F5005F15D072B1012A0CD0022A0AD00C
:1008D000032A09D104E01AB1012A06D0022A03D161
:1008E000C96AC90100D5012010BDC96AA142FAD068
:1008F00010BD002AF7D0012AF2D0022AF3D0032A31
:10090000F3D010BD7047704790F82020012A07D01F
:10091000022A05D0416A41F48021416201207047DA
:10092000006842690A4342610020704710B590F8A0
:100930002020012A07D0022A05D0416A41F48021F3
:100940004162012010BD3B48D0F8002242F0010274
:10095000C0F80022D0F8002222F47C52C0F8002215
:10096000D0F800224B6A42EA0322C0F800220A7D36
:1009700002F01F0301229A40D0F81C329343C0F8C2
:100980001C32CB69B3B9D0F80C329343C0F80C32A7
:100990008C894B6864F31F434C6900EBC404C4F8B2
:1009A00040320C890B6864F31F434C6900EBC404AC
:1009B000C4F84432CB69012B16D1D0F80C32134362
:1009C000C0F80C320C884B6864F31F434C6900EB91
:1009D000C404C4F840320C89CB6864F31F434C69EB
:1009E00000EBC404C4F844328B69002BD0F8043205
:1009F0000ED01343C0F804320B69002BD0F8143228
:100A000008D01343C0F81432096A012904D008E061
:100A10009343EFE79343F5E7D0F81C121143C0F876
:100A20001C12D0F8001221F00101C0F800120020C1
:100A300010BD000000640040704730B590F82040C1
:100A4000012C05D0022C03D0416A41F480215DE0E5
:100A50000468002955D02469A40754D04FF4D874F1
:100A6000056804EB01142D5915F00405956005681F
:100A70002D594ED0ED08556005682C5904F002043C
:100A8000D4604FF4DA74056804EB01142D5905F0B5
:100A90000F05156105682D59C5F307259561056892
:100AA0002C59240C54614FF4DC72046802EB0112DF
:100AB000A4581C700468A458240A5C700468A458E4
:100AC000240C9C700468A258120EDA704FF4DE7287
:100AD000046802EB0112A4581C710468A458240A8B
:100AE0005C710468A458240C9C710468A258120E0E
:100AF000DA71006881B1016941F0200101610020D3
:100B000030BDE468A8E7416A41F400114162012068
:100B100030BD6D0D1560AFE7C16841F02001C160C7
:100B2000EDE72DE9F05F0546006800244669D0F83E
:100B300004908768D0F80CB0D0F810A0D0F81880D6
:100B4000F10748D0F90714D001218160B80703D517
:100B5000284600F04AFA0CE0780702D54FF400640A
:100B600007E0380702D54FF4805402E0284600F031
:100B70003BFAF80516D529684FF480708860B805EF
:100B800003D5284600F033FA0CE0780502D544F48A
:100B9000005407E0380502D544F4804402E02846BA
:100BA00000F024FAF80316D529684FF480308860E5
:100BB000B80303D5284600F01CFA0CE0780302D5F0
:100BC00044F4004407E0380302D544F4803402E0E2
:100BD000284600F00DFA300707D55FEACB6004D550
:100BE0002968102044F40074C86070074FF00807AB
:100BF00007D55FEA0B7004D52868C760284600F067
:100C000093F9B00706D52868C068800702D0284647
:100C100000F08CF9700607D55FEACA6004D5296830
:100C2000102044F480640861B00607D55FEA0A70BA
:100C300004D528680761284600F0A6F9F00606D515
:100C400028680069800702D0284600F09EF9B003AA
:100C500008D55FEAC96005D5296810204860284694
:100C600000F094F9F00307D55FEA097004D528680D
:100C70004760284600F0BEF9300446D55FEA497067
:100C800040D5F00504D55FEAC87001D044F00104F6
:100C9000B00504D55FEA887001D544F00204700500
:100CA00004D55FEA487001D544F00404300529D525
:100CB00018F0700F26D008F07000402815D006DC20
:100CC000102809D020280AD0302816D10AE0502850
:100CD0000ED0602811D10EE044F008040DE044F07D
:100CE00010040AE044F0200407E044F0400404E06B
:100CF00044F0800401E044F480742868816921F0A4
:100D000070018161296804204860002C05D0686A60
:100D1000204368622846FFF78FFEBDE8F09F70B55C
:100D2000040003D094F8200010B104E0012070BD4D
:100D3000204600F081F82068016821F0020101607E
:100D400000F012FC0546052604E000F00DFC401BF7
:100D50000A2811D8206840688007F6D42068016806
:100D600041F00101016000F0FFFB05460BE000F0DF
:100D7000FBFB401B0A2806D9606A40F40030606221
:100D800084F82060D2E720684068C007EFD0207E5A
:100D90000128206801683DD021F080010160607E5B
:100DA00001282068016838D021F040010160A07E50
:100DB00001282068016833D021F020010160E07E25
:100DC0000128206801682ED041F010010160207FC9
:100DD00001282068016829D021F008010160607FA6
:100DE00001282068016824D021F004010160D4E9C1
:100DF00002010843D4E90412114308436168491E03
:100E000008432168C86100206062012084F8200046
:100E1000002070BD41F08001C0E741F04001C5E70E
:100E200041F02001CAE721F01001CFE741F00801AD
:100E3000D4E741F00401D9E7F0B587B004461421A6
:100E40006846FFF779FA334B3348DFF8C4E0196896
:100E5000D4F800C0304A03250226092710300024A8
:100E6000491CF44525D11960012907D1016841F0D9
:100E700000710160006800F000700590106840F09B
:100E8000080010601068CDE9005600F00800CDE9B8
:100E9000047069462148CDE9024500F03FFA00227E
:100EA0000521142000F0ECFB142000F0DBFB07B060
:100EB000F0BDDFF86CE0F445F9D1D0F800C04CF09B
:100EC000806CC0F800C0D0F800C001290CF0806C24
:100ED000CDF814C0196007D1016841F000710160BC
:100EE000006800F000700590106840F0020010608B
:100EF000106802AB00F0020005904FF44050CDE9BD
:100F0000000683E8B0006946064800F007FACEE71D
:100F1000006400402400002030380240000C0240F1
:100F200000680040000402407047000000B58BB02C
:100F300001AB03AA0021FFF780FD0398A0F2012076
:100F400006281AD80E49C0B200EB800208700D497D
:100F500001EB420031F812300381BDF804305BBA76
:100F600021F81230BDF8061049BA4180BDF80810CA
:100F700049BA81809DF80A1081710BB000BD000054
:100F800008000020C4000020704770477047000030
:100F900070B5044690F82000012804D0606A40F43F
:100FA0000020606218E0022084F8200020680168B8
:100FB00021F00101016000F0D7FA05460EE000BF04
:100FC00000F0D2FA401B0A2808D9606A40F40030C9
:100FD0006062052084F82000012070BD2068406810
:100FE000C007EDD1606270BD7047704770477047B1
:100FF0007047704770472DE9F0410446876D00F057
:10100000B3FA064694F835000025022806D0802061
:10101000606584F834500120BDE8F08120680168E3
:1010200021F0160101602068416921F080014161D1
:10103000206C08B9A06C20B12068016821F008017B
:1010400001602068016821F0010101600BE000F0FF
:101050008BFA801B052806D92020606504F8345FD0
:1010600003206070D8E720680068C007EFD194F8CB
:101070005C103F208840B86004F8345F0120607045
:101080000020C9E790F83510022903D0802141657E
:1010900001207047052180F835100068016821F0B3
:1010A00001010160002070472DE9F84304464FF02C
:1010B0000009CDF8009063484FF41651A56D006803
:1010C000B0FBF1F72E6894F85C10082000FA01F1EB
:1010D00031420FD021680A6852070BD50A6822F006
:1010E00004020A6094F85C108840A860606D40F0CB
:1010F0000100606594F85C104FF0010808FA01F0F7
:10110000304208D021684969090604D5A860606D9D
:1011100040F00200606594F85C1004208840304282
:1011200008D021680968890704D5A860606D40F07F
:101130000400606594F85C1010208840304218D09C
:1011400021680968090714D5A86020680168490367
:1011500004D50068000308D5A16C07E00168C90543
:1011600003D4016821F008010160216C09B1204617
:10117000884794F85C1020208840304231D02168A4
:101180000968C9062DD5A86094F83500052820689F
:10119000016806D0490347D5006800031DD4616C7F
:1011A0001CE021F0160101602068416921F08001F6
:1011B0004161206C08B9A06C20B12068016821F061
:1011C0000801016094F85C103F208840A86084F812
:1011D000349084F83580216D1FE0E16B09B1204621
:1011E0008847606D00282BD0606DC00714D00520A3
:1011F00084F835002068016821F001010160009841
:10120000401C0090B84203D820680068C007F6D19F
:1012100084F8349084F83580E16C002910D001B056
:101220002046BDE8F04308470168C905D5D40168E8
:1012300021F01001016084F8349084F83580CCE707
:10124000BDE8F883280000202DE9F041044600F0B5
:101250008BF906465CB1002584F83450022084F8EE
:1012600035002068016821F0010101600DE00120D6
:10127000BDE8F08100F078F9801B052805D9202011
:101280006065032084F83500F2E720680068C00735
:10129000F0D12268116820480140D4E901031843C5
:1012A000D4E903363343184363691843A3691843E9
:1012B000E3691843236A18430843616A042903D188
:1012C000D4E90B1319430843106020684069666A2B
:1012D00020F0070130460E43012704280CD1A06AF4
:1012E0000643E06A40B12046FFF7E2FA20B1402011
:1012F000606584F83570BAE7206846612046FFF7DC
:10130000C3FA94F85C203F2191408160656584F8C0
:1013100035700020ACE700003F8010F02DE9F84F59
:10132000DFF8F4A1002201240AF1040B03254FF099
:101330000F090BF1040E00BF0B6804FA02F63340EC
:10134000B3426FD10F7907F00307012F01D0022FAD
:1013500016D187684FEA420805FA08FC27EA0C070D
:10136000D1F80CC00CFA08FC4CEA070CC0F808C015
:101370004768B7430E79C6F3001696403E43466071
:101380000E79F643B6070AD0C7684FEA420C05FA51
:101390000CF6B7438E6806FA0CF63E43C6600E792B
:1013A00006F00306022E10D1D60800EB8608D8F806
:1013B000206057074FEAD76C09FA0CF7BE430F6954
:1013C00007FA0CF73743C8F8207006684FEA420C5A
:1013D00005FA0CF7BE430F7907F0030707FA0CF77D
:1013E000374307604E68F6001CD54C4E376847F40B
:1013F00080473760366822F0030706F4804600967F
:10140000474E07EB060CDCF8086897073F0F09FA10
:1014100007F826EA0806DFF80C81404503D14FF0B3
:10142000000841E072E0DFF80081404502D14FF052
:10143000010839E0DFF8F480404502D14FF002089E
:1014400032E0DFF8EC80404502D14FF003082BE09A
:10145000DFF8E080404502D14FF0040824E0DFF8D7
:10146000D880404502D14FF005081DE0DFF8CC8060
:10147000404502D14FF0060816E0DFF8C480404531
:1014800002D14FF007080FE0DFF8B880404502D1E5
:101490004FF0080808E0DFF8B080404502D14FF077
:1014A000090801E04FF00A0808FA07F848EA0608B8
:1014B000CCF80888DAF800605746D1F804C09E439B
:1014C0005FEACC3C00D51E433E60DBF800605F461F
:1014D000D1F804C09E435FEA8C3C00D51E433E60B9
:1014E000DEF800607746D1F804C09E435FEACC2C5A
:1014F00000D51E433E60084F0C373E68D1F804C04B
:101500009E435FEA8C2C00D51E433E60521C102A7D
:10151000FFF412AFBDE8F88F003C014044380240B0
:101520000030014000000240000402400008024078
:10153000000C02400010024000140240001802405B
:10154000001C02400020024000240240426921EABF
:1015500002030A4043EA0241816170470AB1816196
:1015600070470904FBE700000148806870470000ED
:101570002C00002002488168027811448160704785
:101580002C0000200B4810B5016841F40071016087
:10159000016841F480610160016841F4807101607B
:1015A000032000F08DF8002000F006F800F03EF86F
:1015B000002010BD003C024010B5014688B000225A
:1015C000192000F05DF8192000F04CF813480024B1
:1015D000016841F001010160006805A900F0010007
:1015E0000690684600F018F900F046F90C490D4ADB
:1015F000B0FBF1F10C48491E026040F2E732C0E94D
:101600000324C0E9011400F0B6FC10B1012008B0B9
:1016100010BD054800F0DEFCF9E700004438024048
:1016200040420F0000000140400600200C4882B0FC
:10163000016841F480410160006800F4804000903E
:101640000748001F016841F08051016000680022D6
:1016500000F0805000900F21901E02B000F010B8F2
:1016600044380240002809DB00F01F0201219140AC
:101670004009800000F1E020C0F800117047000030
:10168000F0B40E4B1B680C46C3F30223C3F10705ED
:10169000042D00D90425191D072901D2002300E0DB
:1016A000DB1E012606FA05F1491E214099409E40A5
:1016B000761E16403143F0BC01F0A6BC0CED00E0F4
:1016C000064900F0070208684FF6FF03184040EA99
:1016D0000220034A10430860704700000CED00E050
:1016E0000000FA052DE9F0470E46050065D0DFF849
:1016F0001481D8F80000F7B200F00F00B04207D212
:1017000088F80070D8F8000000F00F00B04254D103
:1017100028683D4C810712D5400703D5206840F466
:10172000E05020602878000703D5206840F460402E
:1017300020602068A96820F0F00008432060287825
:10174000C0072DD0304968680839012812D0022816
:1017500013D0032811D00968890700292DDA2168E0
:1017600021F0030101432160FFF7FEFE814641F2B3
:10177000883A0EE009688903EFE709688901ECE718
:10178000FFF7F2FEA0EB0901514502D90320BDE8A5
:10179000F0872068696800F00C00B0EB810FEFD192
:1017A000D8F80010404601F00F01B14207D9077088
:1017B000006800F00F00B04201D00120E7E7287870
:1017C000400705D52068E96820F4E0500843206010
:1017D0002878000706D52068296920F4604040EA8F
:1017E000C100206000F058F82168084AC1F30311D5
:1017F000515CC8400649086006480068FFF7DCFEF7
:101800000020C4E7003C0240083802402448000899
:1018100028000020300000200F2202600C4A1368CC
:1018200003F003034360136803F0F003836013685D
:1018300003F4E053C36012684FF4E05303EAD202AA
:1018400002610448006800F00F0008607047000063
:1018500008380240003C0240044805490068096815
:10186000044AC1F38221515CC8407047280000201F
:1018700008380240344800080448054900680968EF
:10188000044AC1F34231515CC8407047280000202F
:101890000838024034480008154810B5006810F0B8
:1018A0000C02144813D01449042A0FD0082A0ED170
:1018B0000F4C241F2268236802F03F025B0207D509
:1018C0002068C0F38810A0FB010106E0084610BDA7
:1018D0002168C1F38811A1FB00010023FEF7E2FC9F
:1018E0002168C1F30141491C4900B0FBF1F010BD72
:1018F000083802400024F40040787D012DE9F84FBB
:1019000004006ED02078DFF84C93C007A9F10405DD
:101910004AD009F104000168C1F38101012908D00E
:101920000068C0F3810002280AD1D9F80000400203
:1019300006D52868800337D560680028E1D033E0F9
:101940006068B0F5803F10D0B0F5A02F286810D0A7
:1019500020F480302860286820F4802028606068A7
:10196000A8B1FFF701FE06460DE0286840F480307C
:10197000F4E740F480202860F7E700BFFFF7F4FDAC
:10198000801B642873D828688003F7D50CE0FFF724
:10199000EBFD064605E000BFFFF7E6FD801B64286F
:1019A000F0D828688003F7D42078DFF8AC8280076D
:1019B0004FF0000A3ED5A748001D016811F00C0F3A
:1019C00008D00068C0F3810002280BD1D9F80000CC
:1019D000400207D42868800716D5E068012800D1A6
:1019E00012E033E1E068B8B10120C8F80000FFF769
:1019F000BBFD064605E000BFFFF7B6FD801B0228D1
:101A0000C0D828688007F7D52868216920F0F80039
:101A100040EAC10028600DE0C8F800A0FFF7A4FD6F
:101A2000064604E0FFF7A0FD801B02281FD82868A7
:101A30008007F7D42078000722D5864F8748616950
:101A4000703771B101210160FFF78EFD064604E099
:101A5000FFF78AFD801B022809D838688007F7D570
:101A60000EE0C0F800A0FFF77FFD064605E082E02B
:101A7000FFF77AFD801B02287DD838688007F7D4ED
:101A80002078400768D5DFF8CCB100270BF13C0B7C
:101A9000DBF80000C0000BD4DBF8001041F08051EF
:101AA000CBF80010DBF80000012700F08050009018
:101AB0006B4E3068C00510D4306840F480703060E0
:101AC000FFF752FD009005E0FFF74EFD0099401A28
:101AD000022850D83068C005F6D55E4EA0686C3636
:101AE00001280FD00528306810D020F001003060A8
:101AF000306820F004003060A068B8B1FFF734FD12
:101B000000900FE0306840F00100F4E740F004007E
:101B10003060F7E7FFF728FD0099411A41F288305D
:101B2000814266D830688007F4D50EE0FFF71CFDCF
:101B3000009007E0FFF718FD0099411A41F2883044
:101B4000814256D830688007F4D42FB1DBF80010FA
:101B500021F08051CBF80010A069C8B33D49091DA0
:101B60000968C1F3810102294AD00228504607D0F2
:101B7000C8F8600000E03CE0FFF7F6FC04463BE0FC
:101B80004746C8F86000FFF7EFFC064605E000BFD7
:101B9000FFF7EAFC801B02282BD828688001F7D4C5
:101BA000D4E907010843A16A2E4A490802EB014122
:101BB000626A41EA8211084394F82C1040EA0161FC
:101BC000C9F8001001203866FFF7CEFC044606E095
:101BD0003EE000BFFFF7C8FC001B022809D82868B8
:101BE0008001F7D534E000BFFFF7BEFC001B0228E0
:101BF00002D90320BDE8F88F28688001F4D427E0DB
:101C00000128F7D0D9F80000E26900F48001914280
:101C10001CD1226A00F03F01914217D147F6C071F2
:101C2000626A0140B1EB821F10D1A26A4FF0FF330C
:101C300000F4403103EB5202B1EB024F06D194F8AD
:101C40002C1000F07060B0EB016F01D00120D1E7E3
:101C50000020CFE70438024000004742800E474290
:101C6000007000400000FFFF70B5040009D0606AFA
:101C7000002540B125616561A56294F8510040B12D
:101C80000CE0012070BD6068B0F5827FF4D0E561A2
:101C9000F2E784F85050204600F044F8022084F81F
:101CA00051002068016821F040010160A08821896D
:101CB00000F4827001F404410843A18901F4006139
:101CC0000843217C01F002010843217D01F001015C
:101CD0000843218B01F400710843217F01F0380192
:101CE000084394F8201001F080010843218D01F48D
:101CF0000051084321680860A069042101EA1040EE
:101D000094F8241001F0100108432168486020680D
:101D1000C16921F40061C1616565012084F8510049
:101D2000002070BD10B586B0044614216846FEF749
:101D300003FB14492068884221D11348002102681E
:101D400042F480120260006800F4801005900E4892
:101D50001438026842F020020260006800F020009F
:101D600005904FF4607000900220CDE9010103203E
:101D700003900520049069460448FFF7CFFA06B0A7
:101D800010BD0000005001404438024000140240E1
:101D90002DE9F84F044690F8500000270A9E1D4692
:101DA00092468B464FF0010901280ED0012084F89D
:101DB0005000FFF7D9FB804694F851006168012874
:101DC0000CD0B1F5827F07D102E00220BDE8F88F88
:101DD000A16809B9042801D00227C2E0BBF1000FB5
:101DE00027D0BAF1000F24D01DB394F85100042875
:101DF00002D0052084F8510000206065C4F838A0A6
:101E0000E587A587C4F830B0E586A58620646064C0
:101E100020680168490603D4016841F0400101606F
:101E2000E068B0F5006F606805D0E8B3012D46D0DA
:101E30007FE0012795E008B1012D39D1206B2168A1
:101E40000088C860206B801C2063E08E401EE08606
:101E50002EE02068816889070FD5E18E69B1B9F15C
:101E6000010F0AD1216B0988C160206B801C20639F
:101E7000E08E401EE0864FF0000920688168C907A7
:101E80000CD0E18F51B1C068A16B0880A06B801CA1
:101E9000A063E08F401EE0874FF00109FFF764FB6D
:101EA000A0EB0800B04200E009E001D3701C50D163
:101EB000E08E0028CDD1E08F0028CAD13FE0206B12
:101EC000216800780873206B401C2063E08E401E60
:101ED000E0862EE02068816889070FD5E18E69B120
:101EE000B9F1010F0AD1216B09780173206B401CF5
:101EF0002063E08E401EE0864FF000092068816874
:101F0000C9070CD0E18F51B1C068A16B0870A06BFC
:101F1000401CA063E08F401EE0874FF00109FFF7EF
:101F200023FBA0EB0800B04202D3701C01D010E0EC
:101F30007EB1E08E0028CDD1E08F0028CAD1424684
:101F40003146204600F082FD28B10127202060653F
:101F500007E0032705E0A06818B92068C168806819
:101F60000090012084F85100002084F85000384689
:101F70002CE77047704710B5040003D094F83D007B
:101F800010B107E0012010BD002084F83C0020467D
:101F900000F01EF8022084F83D00211D206800F0AA
:101FA00081FE012084F8460084F83E0084F83F005A
:101FB00084F8400084F8410084F8420084F843002B
:101FC00084F8440084F8450084F83D00002010BDEA
:101FD0007047000090F83D10012901D001207047A2
:101FE000022180F83D100168CA6842F00102CA600F
:101FF00000681149884214D0B0F1804F11D00F49C8
:1020000088420ED00E4988420BD00E49884208D033
:102010000D49884205D00D49884202D00C498842BA
:1020200004D1816801F00701062903D0016841F05D
:1020300001010160002070470000014000040040E1
:1020400000080040000C0040000401400040014036
:1020500000180040704770B50446006801694FF0F1
:102060000005C943890715D4C168C943890711D43C
:10207000E91E0161012020772068806980072046E1
:1020800002D0FFF7E7FF04E000F098F8204600F0E8
:1020900096F8257720680169C943490717D4C168B4
:1020A000C943490713D46FF004010161022020776E
:1020B0002068806910F4407F204602D0FFF7CAFFF5
:1020C00004E000F07BF8204600F079F825772068DE
:1020D0000169C943090716D4C168C943090712D465
:1020E0006FF008010161042020772068C069800733
:1020F000204602D0FFF7AEFF04E000F05FF8204674
:1021000000F05DF8257720680169C943C90617D436
:10211000C168C943C90613D46FF0100101610820DA
:1021200020772068C06910F4407F204602D0FFF776
:1021300091FF04E000F042F8204600F040F82577D7
:1021400020680169C943C90708D1C168C943C907E3
:1021500004D1891E0161204600F032F8206801692F
:10216000C943090609D4C168C943090605D46FF0FB
:10217000800101612046FFF7FCFE20680169C94328
:10218000490609D4C168C943490605D46FF0400126
:102190000161204600F01EF820680169C9438906E4
:1021A0000BD4C168C943890607D46FF020010161CF
:1021B0002046BDE87040FFF7DDBE70BD7047704738
:1021C00000680349884201D1FFF7D4B97047000085
:1021D000000001407047704770470000F8B5026882
:1021E00004461068D168536910F00F0F4FF00005D6
:1021F00054D003F0010601F4907737435FD0C20753
:1022000005D0CA0503D5226C42F0010222644207C0
:1022100005D5DA0703D0226C42F00202226482075D
:1022200005D5DA0703D0226C42F0040222640207CB
:1022300007D501F02002324303D0226C42F008029D
:102240002264226C002A35D0800604D5880602D587
:10225000204600F0ABFD20684069216CC0F380107F
:1022600001F008010143204625D000F087FD2068D9
:10227000416949061BD5416921F040014161A06BCC
:10228000A8B159490165A06BFEF7FCFE002811D0EA
:10229000A06B016D01B0BDE8F040084783060ED584
:1022A0008B060CD52046BDE8F84000F07FBD2046E7
:1022B000FFF792FFF8BDFFF78FFF2564F8BD266B8F
:1022C0002023012E53D1C60651D5CE064FD5106816
:1022D00050680090506940062BD5A16B0868406893
:1022E0000004000CEAD0A68D8642E7D9E085C869D3
:1022F000B0F5807F18D0D06820F48070D06020685E
:10230000416921F0010141612068416921F04001EA
:10231000416184F83E3025632068C16821F01001D6
:10232000C160A06BFEF767FEA08DE18D401A81B2FF
:1023300019E0A08DE18D401A81B2E08D0028BDD05A
:102340000029BBD0D06820F49070D060206842692A
:1023500022F00102426184F83E3025632068C268A1
:1023600022F01002C2602046FFF735FFF8BD0506D7
:102370002BD50D0629D594F83D002128F6D1A0686B
:10238000B0F5805F01D12069B0B1206A411C2162A3
:10239000216800784860E08C401E0004000CE08456
:1023A000E4D12068C16821F08001C1602068C16863
:1023B00041F04001C160F8BD206A0088C0F3080008
:1023C0005060206A801C2062E5E74006F3D548068D
:1023D000F1D5D168204621F04001D16084F83D302C
:1023E00000F0A1F9F8BD00006D2D000870B50400E3
:1023F00004D094F83D00002510B106E0012070BD26
:1024000084F83C50204600F023F8242084F83D0056
:102410002068C16821F40051C160204600F01EFD13
:102420002068016921F4904101612068416921F02F
:102430002A0141612068C16841F40051C1602564EE
:10244000202084F83D0084F83E00002070BD00008C
:102450002DE9F04387B0064614216846FDF76CFF6E
:10246000DFF83CC1022231684E48032307250024CF
:1024700097064FF48069614538D14A491431D1F843
:1024800000C04CF0100CC1F800C0096801F0100148
:102490000591016841F0020101600068694600F0A1
:1024A00002000590C0208DE81500CDE903353E48B7
:1024B000FEF734FF3E4D3D482860C5E90174C5E98B
:1024C000034980156C61C5E906402C6228466C62A0
:1024D000FEF7BAFE08B1FEF716FAB5630022052131
:1024E0002520AE63FFF7CCF8252054E0DFF8C4C008
:1024F000614552D12B491031D1F800C04CF4003C59
:10250000C1F800C0096801F400310591016841F08B
:10251000080101600068694600F00800059060202D
:102520008DE81500CDE903352348FEF7F7FE204D71
:1025300022486035B8462860C5E90174C5E90349F9
:102540006C61AC61EC612C624F4628466C62FEF710
:102550007BFE08B1FEF7D7F9B563AE63144D17489B
:10256000C0351830E5E80208402091C5104845F80C
:102570001449C030AC61EC612C626C62FEF764FE01
:1025800008B1FEF7C0F97563002205212620AE636D
:10259000FFF776F82620FFF765F807B0BDE8F0836F
:1025A0000010014030380240000402404064024004
:1025B0002005002000440040000C024088600240DA
:1025C00018B400682449884207D12448006801688B
:1025D000890604D501684068009018BC70472049FE
:1025E0000968C906F9D5016840681E4A009010685C
:1025F00001684FF024030C031B49046824F0010414
:10260000046010684468C4F12404A4B20C804360E0
:102610000FD41068016841F400210160106801685E
:1026200041F001010160122CD7D1104901F11600CF
:102630000EE00F48816A21F4002181621068016870
:1026400041F001010160122CC7D1084901F13A00A3
:1026500018BC01F06BBD0000001001409804002080
:1026600000480040200500201A0000203C01002006
:10267000006002402DE9F843044690F83D001F46F3
:1026800016460D4620284CD1C5B1BEB194F83C0089
:10269000012846D0012084F83C004FF00008C4F81F
:1026A0004080212084F83D00FEF75EFFA68481462D
:1026B000E684A068B0F5805F03D004E00120BDE8A7
:1026C000F883206928B12E465FF0000584F83C802D
:1026D0000EE00026FAE78021204600F045FCA0B974
:1026E000AEB116F8010B21684860E08C401EE08412
:1026F000E08C4B464FF0000200970028EBD14FF0E2
:102700004001204600F030FC30B10320D7E735F817
:10271000020BC0F30800E6E7202084F83D0000200B
:10272000CDE70220CBE77047FEE70000104810B568
:102730000E4901600321416000214FF04072C0E961
:1027400002124FF4102202614FF40012426101762E
:1027500041768176C17601774177FEF7E0FA00286D
:1027600003D0BDE81040FEF7CEB810BD00640040B5
:10277000F00300200D4810B50B49016010214160A5
:1027800000218160C16001614161017641768176FD
:10279000C17601774177FEF7C2FA002803D0BDE881
:1027A0001040FEF7B0B810BD0068004018040020CB
:1027B000154808B5016841F480010160016801F421
:1027C00080010091016841F400110160006800225D
:1027D00000F40010009005211020FEF751FF10209A
:1027E000FEF740FF002205211120FEF749FF1120CE
:1027F000FEF738FF002205213A20FEF741FFBDE831
:1028000008403A20FEF72EBF3038024000B587B0AE
:102810001C2206496846FDF776FD0021684601F056
:1028200028FA0349086007B000BD00000848000806
:10283000200000202DE9F04786B014216846FDF7FE
:102840007BFD36480024016841F0100101600168F9
:1028500001F010010591016841F002010160016879
:1028600001F002010591016841F008010160016871
:1028700001F008010591016841F0800101600168E3
:1028800001F080010591016841F0200101600068BC
:10289000DFF88C8000F02000059000220C214046DB
:1028A000FEF75CFEDFF87C90002220214846FEF710
:1028B00055FE0122D60231464046FEF74FFE012268
:1028C000DFF864A0970339465046FEF747FE0C2018
:1028D00000900125CDE90154694640460394FEF776
:1028E0001DFD20200090CDE901546946484603941F
:1028F000FEF714FD0096CDE9015469464046039564
:10290000FEF70CFD0097CDE901546946504603954A
:10291000FEF704FD06B0BDE8F08700003038024045
:1029200000100240001C024000140240104810B584
:102930000E4901604FF482714160002102228160E2
:10294000C0E9031201224261520282611022C0E9F1
:102950000721416281620A21C162FFF785F90028DF
:1029600003D0BDE81040FDF7CEBF10BD00500140C0
:10297000400400200C4810B50A4901600B49416031
:10298000002181600C22C160C0E904128161C16133
:10299000FFF72CFD002803D0BDE81040FDF7B3BFC2
:1029A00010BD00000010014098040020A086010026
:1029B0000C4810B50A4901604FF4E1314160002133
:1029C00081600C22C160C0E904128161C161FFF71E
:1029D0000DFD002803D0BDE81040FDF794BF10BDE9
:1029E00000440040DC040020FEE7704730B5144B83
:1029F0001C68656945F0400565611B68DC6844F04A
:102A00001004DC600F4B1C68256825F0010525606B
:102A10001C682568ED07F7D11D680B4CAC601C687D
:102A2000E06018680161186842601868016841F444
:102A3000802101601868016841F00101016030BD2A
:102A400098040020200500200448004038B50446C2
:102A50001248134B0068B0FBF3F04FF47A735843FD
:102A600000906068B0F5827F0DD10B460092002285
:102A70008021204600F016F870B1606D40F0200013
:102A80006065032038BD009830B1401E009020687A
:102A90008068C0430006F6D5002038BD280000201D
:102AA00000366E012DE9F8431E46914688460446DD
:102AB000089DFEF759FD401B351AFEF755FD0746E8
:102AC00025480068C0F3CB30684338E0701C37D02D
:102AD000FEF74AFDC01BA84203D215B1009860B3AF
:102AE0002CE02068416821F0E00141606068B0F5A9
:102AF000827F0BD1A068B0F5004F02D0B0F5806F97
:102B000004D12068016821F040010160A06AB0F59D
:102B1000005F09D12068016821F40051016020683C
:102B2000016841F400510160012084F85100002047
:102B300084F850000320BDE8F8830025401E009073
:102B40002068816838EA010004D000214945BDD1E0
:102B50000020F0E70121F9E72800002086B000F00E
:102B60006FFF144FDFF85090144D6C464FF4006621
:102B70004FF4804831463846FEF7E8FC4146484667
:102B8000FEF7E4FC0EA000F02FFAC82001F065F873
:102B90000A49601C00F0B2FF6868FDF7F1FC41ECE7
:102BA000100B09A053EC102B00F01EFA322001F09C
:102BB00054F8DFE70010024000140240A400002097
:102BC000746573740A00000025660A0010B5502071
:102BD00080F31188BFF34F8FBFF36F8F01F036FD85
:102BE00018B104494FF080500860002080F311882C
:102BF00010BD000004ED00E030B593B03021684610
:102C0000FDF79AFB14210CA8FDF796FB1948002547
:102C1000016841F080510160006800F0805011901F
:102C20001548016821F4404141F480410160006889
:102C3000022400F4404011900120039010200490E1
:102C4000009406940820CDE907505420CDE90904EA
:102C500004200B906846FEF751FE0CA90F2081E876
:102C60003100E002CDE90F0502210CA8FEF73AFD84
:102C700013B030BD40380240007000400548016884
:102C800041F47001016003494FF000608039086031
:102C90007047000088ED00E00148FFF7DCB9000054
:102CA00040060020F0B50268254C264D264E274FE1
:102CB000274B4FF0804CA04209D0604507D0A84276
:102CC00005D0B04203D0B84201D0984204D122F0DE
:102CD000700E4A6842EA0E02A0421BD0604519D02D
:102CE000A84217D0B04215D0B84213D0984211D0A4
:102CF000184DA8420ED0184DA8420BD0174DA8422F
:102D000008D0174DA84205D0164DA84202D0164D46
:102D1000A84203D122F44075CA682A434D6922F0C3
:102D200080022A4302608A68C2620A688262A04204
:102D300001D0984201D10969016301214161F0BDCF
:102D4000000001400004004000080040000C00406A
:102D5000000401400040014000440140004801409F
:102D600000180040001C00400020004010B5806B9F
:102D70000021C185C184FFF72FFA10BD0168CA6820
:102D800022F49072CA6001684A6922F001024A6125
:102D9000016B012904D10168CA6822F01002CA60DF
:102DA000202180F83E1000210163704710B50446D1
:102DB00090F83E00222801D0022010BDA1684FF4F7
:102DC0008052914201D1206920B1A06A91421BD06A
:102DD00049B10AE02168A06A4968C1F3080101808D
:102DE000A06A801C08E0216971B12168496801F07E
:102DF0007F010170A06A401CA062E08D401E0004AB
:102E0000000CE08503D01CE021684968F1E72068E8
:102E1000C16821F02001C1602068C16821F480717F
:102E2000C1602068416921F001014161202084F8DE
:102E30003E00206B012806D02046FFF7C1FB002092
:102E40002063002010BD2068C16821F01001C1601E
:102E5000A18D2046FFF7BFF9F1E7000070B50446E9
:102E600000680169E26821F4405111430161216960
:102E7000A068E26908436169114308432168CA6890
:102E800049F20C639A430243CA6020684169A2690F
:102E900021F440711143416131492068884202D0D8
:102EA0003049884202D1FEF7E7FC01E0FEF7D4FC8E
:102EB000E2690023192164253226B2F5004F6268C9
:102EC00028D0A0FB0101930F9200FDF7EBF901461A
:102ED000B0FBF5F06FF01802504301EB800006EBF9
:102EE0000010B0FBF5F000F0F002B1FBF5F002EBE2
:102EF0000012B1FBF5F06FF01803584301EB8000AE
:102F000006EB0010B0FBF5F000F00F002168104454
:102F1000886070BDA0FB010192185B41FDF7C2F90A
:102F20000146B0FBF5F00201B1FBF5F06FF01803BC
:102F3000584301EB800006EBC000B0FBF5F000F059
:102F4000F80002EB4002B1FBF5F0584301EB8000C2
:102F500006EBC000B0FBF5F000F00700D6E700007C
:102F600000100140001401402DE9F0419846174639
:102F70000E460446069D1DE0681C1BD02DB1FEF7D1
:102F8000F3FAA0EB0800A84214D92068C16821F424
:102F9000D071C1602068416921F0010141612020A8
:102FA00084F83D0084F83E00002084F83C000320B3
:102FB000BDE8F0812068006836EA000004D00020F7
:102FC000B842D9D00020F3E70120F9E70148FFF724
:102FD00005B90000980400200148FFF7FFB8000081
:102FE000DC040020FEE700000FB4054B10B503A978
:102FF000044A029800F0DAF810BC5DF814FB0000F7
:103000009D390008A00000200907090E002804DBF4
:1030100000F1E02080F80014704700F00F0000F18C
:10302000E02080F8141D704702E008C8121F08C194
:10303000002AFAD170477047002001E001C1121F39
:10304000002AFBD1704700002DE9FF5FDDE9022077
:10305000010DDDF838B0024318D044F61050A1F24B
:10306000FF3141430D140F98012820D0A5EB0B0030
:10307000401C5FEA000A4FF00004474EDFF81C9145
:10308000A046504616D5CAF1000728E00F98012443
:1030900043A2012808D0002100980F9BC0E900211D
:1030A000C0E90243BDE8FF9F6FEA0B01F4E7CBF1F3
:1030B0000000DEE7074612E0F80707D02246334655
:1030C00040464946FDF7EAF980468946224633469E
:1030D00010461946FDF7E2F904460E467F10002F10
:1030E000EAD1DDE90201BAF1000F42464B4602DAAD
:1030F000FDF7D4F901E0FDF713FB04460E4600226C
:10310000284BFDF751FA03D84FF0FF30014607E096
:103110000022254B20463146FDF719F9FDF76FFBDC
:10312000102409E0002C0ADB0A220023FDF7BAF87C
:10313000019B30321A55641E50EA0102F2D1641C20
:10314000019AC4F1110314440F9A012A03D00122F9
:1031500008430DD10AE0084304D000204FF0110BC2
:103160000F9080E7A3EB0B056D1E0DE05B4504DDC2
:103170004FF0000205F1010504E003DA4FF0000210
:10318000A5F10105002AECD000980F99C0E90231A1
:10319000C0E9004586E70000000024400000F03F41
:1031A000300000000000F0430000E03F2DE9FF4F39
:1031B00095B09B468946064600250FE2252877D123
:1031C00000242746F84A0121059400E0044316F83C
:1031D000013F203B01FA03F01042F7D130782A2852
:1031E00011D06FF02F033078A0F13002092A16D8E1
:1031F000059A44F0020402EB820203EB42021044FF
:10320000761C0590EFE759F8042B0592002A03DAA3
:10321000504244F40054059044F00204761C307887
:103220002E2816D116F8010F44F004042A280DD0D8
:103230006FF02F023078A0F13003092B09D807EB8B
:10324000870302EB4303C718761CF3E759F8047BA6
:10325000761C30786C280FD006DC4C2817D06828F4
:103260000DD06A2814D104E0742810D07A280FD128
:103270000DE044F400140AE044F4801401E044F446
:1032800040147278824202D104F58014761C761CB8
:10329000307866280BD013DC582877D009DC00285A
:1032A00075D04528F6D04628F4D047281AD19DE19C
:1032B00018E0632835D0642879D0652812D195E1CB
:1032C000702873D008DC6728F1D069286FD06E2889
:1032D0000DD06F2806D1B5E073282CD0752875D095
:1032E000782874D05A46179990476D1C75E1C4F33D
:1032F0000250022809D003280DD0D9F80010042864
:103300000DD00D6009F1040967E1D9F80010EA1742
:10331000C1E90052F6E7D9F800100D80F2E70D7010
:10332000F0E719F8041B8DF8001000208DF801005B
:10333000EA46012003E059F804AB4FF0FF30610783
:103340004FF0000102D40DE008F101018846B942B6
:103350000FDA8045F8DB1AF808100029F4D108E0EC
:1033600008F1010188468142FADB1AF808100029A9
:10337000F6D105985B46A0EB080721463846179A18
:1033800000F094FA284400EB080507E04DE029E13D
:103390000DE01AF8010B5A4617999047B8F1010849
:1033A000F7D25B4621463846179A13E142E00A22DB
:1033B0000092C4F302524FF0000A022A08D059F8D2
:1033C00004CB032A4FEAEC710AD00DE029E02AE091
:1033D00009F1070121F00702F2E802C1914609E074
:1033E0000FFA8CFC4FEAEC71042A03D14FFA8CFCE3
:1033F0004FEAEC71002907DA0A460021DCF1000CE3
:1034000061EB02012D2202E0220504D52B228DF86A
:103410000420012203E0E20701D02022F7E79046D2
:1034200059E00A2102E010220DE010214FF0000ABD
:1034300000910BE010224FF0000A44F0040408272A
:10344000009203E008224FF0000A0092C4F30252F7
:10345000022A05D059F804CB0021032A08D009E03C
:1034600009F1070121F00702F2E802C1914605E0E7
:103470001FFA8CFC042A01D10CF0FF0C4FF000085D
:10348000220728D5702806D0009B83F0100353EA4A
:103490000A0305D00EE040228DF80420012208E046
:1034A0005CEA010206D030228DF804208DF8050078
:1034B00002229046009B83F0080353EA0A030AD1D4
:1034C0005CEA010201D1620705D530228DF80420A3
:1034D0004FF001087F1E582804D034A003900EA896
:1034E00002900DE036A0F9E753466046009AFCF7DB
:1034F000D9FE84460398825C0298401E02900270B6
:103500005CEA0100F0D1029806A9081A00F1200A2D
:10351000600702D524F4803400E00127574502DD1E
:10352000A7EB0A0000E0002000EB0A0100900598DC
:103530004144401A0590E00306D45B462146179AA1
:10354000059800F0B3F90544002706E001A85A46A3
:10355000C05D179990476D1C7F1C4745F6DBE00363
:103560000CD55B462146179A059800F09FF9054453
:1035700004E030205A46179990476D1C0099481E68
:1035800000900029F5DC08E0029802995A4600787C
:10359000491C0291179990476D1CBAF10001AAF1DC
:1035A000010AF1DC65E10000092801003031323305
:1035B000343536373839616263646566000000006F
:1035C0003031323334353637383941424344454659
:1035D0000000000000F058F90544761C30780028FF
:1035E0007FF4ECAD19B02846BDE8F08F620700D437
:1035F000062709F1070222F0070CFCE80223E14646
:1036000003F000485FEA080C02D00FF2702C0DE0C6
:103610005FEA045C02D50FF2682C07E05FEAC47C25
:1036200002D00FF2602C01E0AFF2700C4FF0FF38C7
:1036300023F00043CDF850C065280CD006DC4528A7
:1036400009D046281DD047283DD13DE0662818D036
:1036500067287ED138E00021112F01DB112000E026
:10366000781CCDE9000106A90EA8FFF7EDFCDDE905
:103670000F010E9A03910021009207F1010A0491B3
:103680004DE04FF000400097CDE9011006A90EA8CB
:10369000FFF7DAFCDDE90F0203920E9B119900227D
:1036A000DDF80CA00093049211B9791C00EB010A1B
:1036B000B7EB0A0004D4C0F1FF3007F1010A04900F
:1036C000AAEB0700019044E0012F00DA0127002156
:1036D000112F01DD112000E03846CDE9000106A9D7
:1036E0000EA8FFF7B1FCDDE90F010E9A039100214E
:1036F00004910092BA4621070CD40399514500DA8F
:103700008A46BAF1010F05DD009AAAF10101515C68
:10371000302908D0B84202DA10F1040F06DA01218C
:10372000CDE9011015E0AAF10101E9E7002805DC67
:10373000049901440491AAEB000102E0411C5145A7
:1037400000DD8A460499401A401C01904FF0004069
:103750000290200704D40198504501DBCDF8048085
:1037600000208DF84F0002980DF14F07B0F1004F87
:1037700025D02B200E9002984FF0020800280CDA7A
:10378000404202902D200E9007E00A210298FCF79B
:1037900023FF3031029007F8011DB8F10001A8F1B4
:1037A0000108F2DC02980028EFD1791E0E9808700B
:1037B000307800F0200040F0450007F8020D12A814
:1037C000C01B00F107081498007800B1012000EB3D
:1037D0000A01019801EBE07105984144401A401E2E
:1037E0000590E00306D45B462146179A059800F041
:1037F0005DF805441498007818B15A461799904717
:103800006D1CE00324D55B462146179A059800F00D
:103810004DF805441CE00498002807DBDDE90301AE
:10382000884203DD0098405C179901E01799302029
:103830005A469047049805F10105401C04900198F0
:10384000401E019004D12E205A46179990476D1CB6
:10385000BAF10001AAF1010ADDDC05E017F8010B5D
:103860005A46179990476D1CB8F10001A8F101085C
:10387000F4DC5B462146179A0598ABE62D00000064
:103880002B000000200000002DE9F0410446002537
:103890001E461746880404D405E039462020B04768
:1038A0006D1C641EF9D52846BDE8F0812DE9F04174
:1038B000044600251E469046C80301D5302700E087
:1038C0002027880404D505E041463846B0476D1CE2
:1038D000641EF9D52846BDE8F081000000B58BB024
:1038E00000200121CDE9060108910090019002908D
:1038F00003900590049069460C48FDF717F80B48B3
:10390000FDF746FB02210948FCF7FEFF0E20099057
:10391000059069460648FDF709F80548FDF738FBAC
:1039200002210348FCF7F0FF0BB000BDF0030020BC
:103930001804002070B54FF0E024002265690949A1
:10394000A36949684843A1699942FCD002D2A3EB1C
:10395000010302E0A5EB010633441A440B46824200
:10396000F1D370BD0000002070B54FF0E0240022BC
:1039700065690949A36909784843A1699942FCD05E
:1039800002D2A3EB010302E0A5EB010633441A4483
:103990000B468242F1D370BD0000002013B54FF6F4
:1039A000FF73012269460248FEF764FE00981CBDC1
:1039B000DC040020FDF7E6FDFFF71EF9FEF73AFFF5
:1039C000FEF7F6FEFEF7F4FFFEF7B0FEFEF7D2FEBE
:1039D000FEF7D0FFFEF7AAFFFFF780FF00F09EFB87
:1039E00000F0FEFBFEF712FF00F03EF9FEE7014695
:1039F0000020842900D0C81C704770470122202174
:103A00000148FDF7ABBD0000001C02400022202150
:103A10000148FDF7A3BD0000001C024001B582B0C3
:103A20004FF47A700090012301AA02A90248FEF720
:103A3000AFF99DF804000EBD40040020704700005F
:103A40002DE9F0414FF0960832250024FFF7D5FF0D
:103A5000FFF7F4FF752000F0E1F8404600F04AF867
:103A6000752000F0DBF8404600F044F880216B2020
:103A700000F0E4F8284600F03BF8752000F0CEF89E
:103A8000404600F037F8752000F0C8F8404600F0D6
:103A900031F8752000F0C2F80546404600F02AF8DB
:103AA000702D02D08020BDE8F081104D04EB44065B
:103AB0007719A85D797800F0C1F8404600F01AF84F
:103AC000A85D00F0ABF80646404600F013F87878A1
:103AD000B04204D004EB440028448078E3E7641C3F
:103AE000E4B20E2CE2D30020DDE70000DC47000842
:103AF000FFF720BF80B2FFF737BF000010B50028E6
:103B00007ED000297CD00278520603D50A7842F094
:103B100002020A700B789A070BD53C4A1478641C91
:103B2000E4B214700A2C04D90024147023F00202A9
:103B30000A700278D20768D00A789FED361A42F0F0
:103B400001020A7042788378120212B21A4300EE20
:103B5000102AF8EEC00A9FED2E0A60EE800AC1ED31
:103B6000010AC2780379120212B21A4300EE902AB7
:103B7000F8EEE00A60EE800AC1ED020A427983792C
:103B8000120212B21A4300EE902AF8EEE00A20EE7A
:103B9000800A81ED030AC279037A120212B21A4333
:103BA00000EE102AF8EEC00AB3EE070A00EE810A12
:103BB00081ED040A427A837A120212B21A4300EEAD
:103BC000102AF8EEC00A9FED140A60EE800AC1EDDB
:103BD000050AC27A037B120212B21A4300EE902A3F
:103BE000F8EEE00A60EE800AC1ED060A427B807BB7
:103BF000120212B2024300EE902AF8EEE00A00E050
:103C000003E020EE800A81ED070A10BD1C000020B1
:103C1000CDCC1C3A6F12033B58A00B3A10B50446AA
:103C2000FFF7F4FE44F08000FFF7F8FEFF20FFF7F7
:103C3000F5FE0446FFF7E2FE204610BD70B50D46C6
:103C40000446FFF7E3FE2046FFF7E8FE2846FFF7AD
:103C5000E5FEBDE87040FFF7D1BE10B500B9012008
:103C600000F090FB002010BD10B500F0B1FB00206B
:103C700010BD7FB50D4604464169B0F9080081B119
:103C8000A16971B1FFF7B3FED4E905128DE8070011
:103C9000D4E900102B46226900F0ADFC039004B07B
:103CA00070BDFFF7A4FE03A9CDE90001208A2B46D1
:103CB00082B2D4E9001000F071FC012801D000208C
:103CC000EDE70398EBE700002DE9F041184C0F46B3
:103CD0000546E6682068001D00F08CFA38B92068B7
:103CE00090F82C1001208840216981432161681CD3
:103CF00007D137B12168BDE8F0410E48091D00F039
:103D0000BDBA20683544B5424560216805D2A06B34
:103D1000BDE8F041091D00F099BA606B091D00F083
:103D200095FAA06A854200D2A562BDE8F081000044
:103D300038000020640700202DE9F041054600F01E
:103D4000A9FA2E4CA068401CA06020682C4F10B12E
:103D5000606940B32DE02560A068012829D10026C4
:103D600006EB860007EB800000F062FA761C072E57
:103D7000F6D323488C3000F05BFA2148A03000F0E5
:103D800057FA1F48B43000F053FA1D48C83000F00D
:103D90004FFA1B48DC3000F04BFA19488C30606356
:103DA0001430A06305E02068E96AC06A884200D840
:103DB0002560606A401C6062E96A012022698840CF
:103DC0001043206101EB810007EB8000291D00F00A
:103DD00055FA00F07FFA606900280CD02068E96A83
:103DE000C06A884207D207494FF080500860BFF38D
:103DF0004F8FBFF36F8FBDE8F081000038000020C7
:103E00008806002004ED00E010B5044690F851004B
:103E100058B101280CD002280FD0502080F311880F
:103E2000BFF34F8FBFF36F8FFEE7206B00F066FA92
:103E30002046BDE8104000F061BA10BD10484FF4B4
:103E40007051420706D0C01D0D4920F00700411AED
:103E5000C1F570510B4A00230144C2E9000308393F
:103E6000183A21F0070111604B600B600B1AC0E992
:103E7000001393604FF000405360506170470000A2
:103E8000780700208C000020144E154CA6F1C807BE
:103E90004FF08058DFF84C9012E000BF00F0FAF9C4
:103EA000F068C568281D00F0A5F9A068401EA06054
:103EB0006068401E606000F00DFA2846FFF7A4FF1E
:103EC00060680028EAD138680128F9D9C9F800806B
:103ED000BFF34F8FBFF36F8FF2E700005007002052
:103EE0003800002004ED00E02DE9F0479A46DDE9B6
:103EF000098481466FF00303206B03EB82021044B8
:103F0000089E20F00707780707D0502080F311881B
:103F1000BFF34F8FBFF36F8FFEE7002561B1002025
:103F200023180A5C83F834200A5C12B1401C102864
:103F3000F6D384F8435001E084F83450072E00D3C0
:103F40000626E662C4E91165201D00F07CF904F143
:103F5000180000F078F92461C6F107006462A061DE
:103F6000E56484F8505052464946384600F0C0F89F
:103F70002060B8F1000F01D0C8F80040BDE8F0871C
:103F800030B5114900E011460A688242FBD34B6804
:103F90005C18844203D1406818444860084643686E
:103FA0001C18944209D1084C183C2468A24209D03C
:103FB00052681A4442600A6812680260814200D066
:103FC000086030BD0460F9E78C0000200648416BB2
:103FD000096829B1416BC968C9684968816270473D
:103FE0004FF0FF31FAE70000380000200848406831
:103FF000401C4FF0500080F3118804D0BFF34F8F66
:10400000BFF36F8FFEE7BFF34F8FBFF36F8FFEE7F6
:10401000940000202DE9F0410546002700F00EFA3B
:10402000324E306808B9FFF709FF706905424ED17A
:10403000C5B3083568070ED005F00700C0F10800C9
:104040000544680707D0502080F31188BFF34F8FD5
:10405000BFF36F8FFEE72DB37068854237D82348D2
:10406000183001460C6801E020460C466168A94200
:1040700002D221680029F7D131688C4227D0076825
:104080002168016060680837411B10290FD9601949
:10409000420708D0502080F31188BFF34F8FBFF341
:1040A0006F8FFEE713E041606560FFF769FF6168AD
:1040B0007068401A7060B268904200D2B060706957
:1040C00001430020C4E90001F068401CF06000F0EA
:1040D00023FB780707D0502080F31188BFF34F8F60
:1040E000BFF36F8FFEE73846BDE8F0817400002013
:1040F00010B5031F4FF080741C601B1F21F00101DD
:104100001960191F044B0B6014390A60091F6FF006
:10411000020244380A6010BDED3F00080249242223
:10412000A1F12400FEF762BC76010020F0B5002862
:1041300055D0002953D00278437842EA0322C2F3D3
:104140000A020A8043788478DB0843EA4413C3F305
:104150000A034B808478C578A40944EA850405796C
:1041600044EA8524C4F30A048C80057946796D08F5
:1041700045EAC615C5F30A05CD804679C6F3011692
:104180008E724679B609CE728679C77946EA0726D5
:104190008E81067A477A46EA0726CE81867AC77AE2
:1041A00046EA07260E82067B8E74467BCE74867B9B
:1041B000C77B46EA07268E82067C407CA2F5806299
:1041C0000A80A3F580634B80A4F5806446EA002052
:1041D0008C80A5F58065CD80A0F580600881F0BD5C
:1041E00003480068416941F0800141617047000067
:1041F000DC040020D0E9013201699A60D0E9012392
:104200005A604A68824201D182684A600022026193
:104210000868401E0860086870470000034B036090
:1042200003F1540008608020106070479C0100205A
:1042300000F108014FF0FF32C0E90112C1600161D5
:1042400000210160704700210161704730B50B68A3
:104250005A1C02D000F1080202E0026904E0224682
:10426000546825689D42FAD953684B6099608A600A
:10427000516008610168491C016030BD42684A60B4
:1042800093688B6093685960916008610168491C6C
:1042900001607047502080F31188BFF34F8FBFF348
:1042A0006F8F0A494868401C486001280CD10848B3
:1042B000006810F0FF0F07D0502080F31188BFF383
:1042C0004F8FBFF36F8FFEE7704700009400002010
:1042D00004ED00E00849486828B1401E486001D15B
:1042E00080F311887047502080F31188BFF34F8FFF
:1042F000BFF36F8FFEE700009400002070B5002828
:104300002AD0164DA0F1080460686969084207D1F7
:10431000502080F31188BFF34F8FBFF36F8FFEE7FC
:1043200022683AB1502080F31188BFF34F8FBFF35A
:104330006F8FFEE78843606000F080F8606869680E
:10434000084468602046FFF71BFE2869401C28616E
:10435000BDE8704000F0E0B970BD000074000020BE
:104360004FF0E02000210161816105494FF47A722C
:104370000968B1FBF2F1491E4161072101617047F3
:104380002800002010B5020014D00F48006B38B18F
:10439000502080F31188BFF34F8FBFF36F8FFEE77C
:1043A00000F04CF800211046FFF78EFC00F0B4F945
:1043B000002807D105494FF080500860BFF34F8FA8
:1043C000BFF36F8F10BD00003800002004ED00E047
:1043D00010B586B00024039405AA04A903A8049488
:1043E000FFF71CFFDDE903010094CDE90110002374
:1043F0000EA11048059A00F0FEF80F490028C86287
:1044000011D0502080F31188BFF34F8FBFF36F8F0F
:104410004FF0FF30886201204861CC6006B0BDE8F3
:10442000104000F041B806B010BD000049444C45B2
:1044300000000000893E0008380000200248016B9F
:10444000491C016370470000380000201448016BCC
:1044500011B10121C16170470021C1610169B1FA47
:1044600081F1C1F11F0101EB81020E4951F82230A7
:104470006BB101EB820101F108034A6852684A609E
:104480009A4201D152684A60D16801607047502059
:1044900080F31188BFF34F8FBFF36F8FFEE70000EB
:1044A00038000020880600201CB537480168374ACC
:1044B000914207D1502080F31188BFF34F8FBFF393
:1044C0006F8FFEE700683149491E884207D15020AE
:1044D00080F31188BFF34F8FBFF36F8FFEE72C4936
:1044E00008780190FF20087008788DF800009DF88A
:1044F00000009DF8002000F0F000904207D050200E
:1045000080F31188BFF34F8FBFF36F8FFEE79DF8E5
:104510000000204C00F0500020700720A06005E053
:104520009DF8002052008DF80020401E9DF80020CC
:104530001206F5D4A060032807D0502080F311881C
:10454000BFF34F8FBFF36F8FFEE74FF44070A06053
:10455000019808700C482030016841F47001016036
:10456000016841F070410160FFF7FAFE00206060D1
:10457000FBF74AFE0848016841F040410160FBF743
:104580002FFE00201CBD000000ED00E071C20F41B5
:1045900000E400E09400002034EF00E02DE9FF5F2C
:1045A0008346DDE90E87994616468A469000FFF756
:1045B00031FD05001CD05420FFF72CFD040014D061
:1045C0000020256384F85100CDE90240CDE9008741
:1045D0004B46324651465846FFF786FC2046FFF7C9
:1045E000ABFB012004B0BDE8F09F2846FFF786FE34
:1045F0004FF0FF30F6E7F0B585B0DDE90B640A9DBA
:10460000A6B1DCB1542700972663022684F85160D6
:10461000002604AFCDE90246CDE90057FFF764FC60
:104620002046FFF789FB049805B0F0BD502080F3C9
:104630001188BFF34F8FBFF36F8FFEE7502080F3D9
:104640001188BFF34F8FBFF36F8FFEE72DE9F04165
:104650002F4C0026206B28B1A069401CA061304679
:10466000BDE8F081E5686D1CE56013D1606B006802
:1046700038B1502080F31188BFF34F8FBFF36F8F95
:10468000FEE7606BA16B6163A063206A401C20623F
:10469000FFF79CFCA06ADFF87C80854209D3606B41
:1046A0000068A0B1606BC068C7687868854211D2A5
:1046B000A0622068C06A00EB800158F82100012840
:1046C00000D90126E0690028C9D00126C7E74FF0CC
:1046D000FF30EDE7381DFFF78DFDB86A18B107F11F
:1046E0001800FFF787FDF96A01202269884010430E
:1046F000206101EB810108EB8100391DFFF7BEFD50
:10470000F86A2168C96A8842C9D30126C7E7000050
:1047100038000020880600202DE9F0472C4D0024A9
:104720002746286B38B1FFF7B5FD286B401E28637C
:10473000286B40B146E0502080F31188BFF34F8FC3
:10474000BFF36F8FFEE7A968224E0120D1B3A6F117
:10475000B40980463068E8B1F068C46804F1180014
:10476000FFF748FD201DFFF745FDE06A2A6908FABA
:1047700000F11143296100EB800109EB8100211D4B
:10478000FFF77CFDE06A2968C96A8842E2D3C5F870
:104790001C80DFE70CB1FFF719FCAC6944B1464659
:1047A000FFF754FF00B1EE61641EF9D10020A8614B
:1047B000E86938B10849012738070860BFF34F8F0F
:1047C000BFF36F8FFFF786FD3846BDE8F087000026
:1047D000380000203C07002004ED00E06B00016C75
:1047E00000021900031A02041B10061C00071D001A
:1047F000081F0F0D244D0937020538010B67010C06
:1048000069C00D6A300A0000444800085D2B0008AA
:104810000000000000000000000100000000000097
:10482000000000000000000000000000010203047E
:104830000607080900000000010203040006101624
:1048400000061016546573745461736B0000000009
:104850007048000800000020A40000002830000874
:1048600014490008A4000020D44600003830000895
:104870000000000000000000000000000000000038
:104880000000000000000000000000000000000028
:1048900000000000000000000024F40001000000FF
:1048A00010000000000000000000000000000000F8
:1048B00000000000000000000000000000000000F8
:1048C00000000000000000000000000000000000E8
:1048D00000000000000000000000000000000000D8
:1048E00000000000000000000000000000000000C8
:1048F00000000000000000000000000000000000B8
:104900000000000000000000AAAAAAAA00000000FF
:0449100000000000A3
:04000005080001AD41
:00000001FF
