:020000040800F2
:100000002045002081020008631E0008A71C00088C
:10001000611E00082D080008B12100080000000042
:10002000000000000000000000000000C101000806
:1000300091080008000000001D020008851E00084D
:100040009B0200089B0200089B0200089B0200081C
:100050009B0200089B0200089B0200089B0200080C
:100060009B0200089B0200089B0200089B020008FC
:100070009B0200089B0200089B0200089B020008EC
:100080009B0200089B0200089B0200089B020008DC
:10009000310800089B0200089B0200089B02000830
:1000A0009B020008511F00089B0200089B020008E9
:1000B0009B0200089B0200089B0200089B020008AC
:1000C0009B0200089B0200089B0200089B0200089C
:1000D0009B0200089B0200089B0200089B0200088C
:1000E0009B0200089B0200089B0200089B0200087C
:1000F0009B0200089B0200089B0200089B0200086C
:100100009B0200089B0200089B0200089B0200085B
:100110009B0200089B0200089B0200089B0200084B
:100120009B0200089B0200089B0200089B0200083B
:100130009B0200089B0200089B0200089B0200082B
:100140003D0800089B0200089B0200089B02000873
:100150009B0200089B0200089B0200089B0200080B
:100160009B0200089B0200089B0200089B020008FB
:100170009B0200089B0200089B0200080000000090
:100180009B0200089B0200089B0200089B020008DB
:100190009B0200089B0200089B0200089B020008CB
:1001A00000000000000000009B020008DFF80CD0F7
:1001B00000F02AFB00480047192B000820450020CA
:1001C0002C4B19680868B0E8F04F80F30988BFF33A
:1001D0006F8F4FF0000080F311887047000000001F
:1001E00008480068006880F308884FF0000080F33A
:1001F000148862B661B6BFF34F8FBFF36F8F00DF15
:1002000000BF00BF08ED00E0DFF80C00016841F41A
:1002100070010160704700BF88ED00E0EFF30980D6
:10022000BFF36F8F134B1A681EF0100F08BF20ED3D
:10023000108A20E9F04F106009B44FF0500080F3AD
:100240001188BFF34F8FBFF36F8F02F087FF4FF01E
:10025000000080F3118809BC19680868B0E8F04F05
:100260001EF0100F08BFB0EC108A80F30988BFF3AE
:100270006F8F70472C000020EFF30580704700005F
:100280000648804706480047FEE7FEE7FEE7FEE730
:10029000FEE7FEE7FEE7FEE7FEE7FEE7351F0008A4
:1002A000AD0100082DE9F05F0546002092469B460F
:1002B00088460646814640241BE02846414647467C
:1002C000224600F09AF953465A46C01A914110D37B
:1002D00011461846224600F081F92D1A67EB0108F5
:1002E0004F4622460120002100F078F917EB000963
:1002F0004E41201EA4F10104DFDC484631462A4667
:100300004346BDE8F09F40EA01039B0703D009E0A4
:1003100008C9121F08C0042AFAD203E011F8013BF1
:1003200000F8013B521EF9D27047D2B201E000F84A
:10033000012B491EFBD270470022F6E710B5134689
:100340000A4604461946FFF7F0FF204610BD2DE986
:10035000FE4F804681EA0300C00F0C46009021F05A
:10036000004123F00045B8EB0200A94105D2404608
:10037000214690461C460B46024623F0004010439F
:1003800047D0270DC7F30A00C3F30A510290401A61
:10039000019040286BDAC3F3130040F4801B0098EF
:1003A000924620B10023D2EB030A63EB0B0B0198BA
:1003B0005946C0F14002504600F010F906460D467D
:1003C00050465946019A00F028F910EB08006141A7
:1003D000002487EA115284EAE7731A4340D0009A56
:1003E00062B3019A012A4FEA075215DC001B61EB48
:1003F00002014FF0004202EA0752CDE90042001C20
:1004000041F5801132462B4600F028F903B0BDE8D3
:10041000F08F40462146F9E7001B61EB0201001C0A
:1004200041F5801300185B412018A2F5001747EB37
:10043000030140EAD570B6196D4111E06D084FEA2D
:10044000360645EAC0754FEA0752001B61EB020110
:10045000001C41F5801149084FEA30000019514154
:1004600032462B4603B0BDE8F04F00F0E8B80098E4
:10047000012240000023D0EB020263EBE0730098FE
:1004800021464FEAE074B8EB000061EB0401E9E7B4
:1004900083F000435BE781F0004158E72DE9FE4F10
:1004A00081EA030404F0004421F0004100944FF07D
:1004B000000B23F0004350EA01045ED052EA03042B
:1004C0005BD0C3F30A54C1F30A552C44A4F2F334AD
:1004D0000194A0FB0254C1F3130141F48011C3F352
:1004E000130343F4801301FB024400FB034E840A10
:1004F000970A44EA815447EA8357A4FB07680295A8
:100500008D0A05FB07854FEA932C04FB0C54270545
:10051000029D4FEA065847EA1637B5EB08056EEB21
:10052000070C870E920E47EA811742EA8312A7FB57
:100530000201B6EB0B0164EB00042B0D43EA0C3314
:100540005E1844EB1C50DA465146E7FB0201C5F346
:1005500013044FEA0B3343EA14534FEA0432019C6D
:1005600043EA0603A4F10C040294009CCDE900B414
:1005700000F074F803B0BDE8F08F00200146F9E701
:1005800030B5041E71F1000404DB4FF0004440421A
:1005900064EB0101141E73F1000405DB1C464FF0EF
:1005A0000043524263EB0403994208BF904230BDBE
:1005B00030B50B46014600202022012409E021FA33
:1005C00002F59D4205D303FA02F5491B04FA02F530
:1005D0002844151EA2F10102F1DC30BD202A04DB03
:1005E000203A00FA02F1002070479140C2F1200346
:1005F00020FA03F3194390407047202A04DB203A85
:1006000021FA02F00021704721FA02F3D040C2F132
:1006100020029140084319467047202A06DBCB1779
:10062000203A41FA02F043EAE07306E041FA02F3AD
:10063000D040C2F12002914008431946704710B5DE
:10064000141E73F1000408DA401C41F100019218F5
:100650005B411A4301D120F0010010BD2DE9F04D9E
:1006600092469B4611B1B1FA81F202E0B0FA80F2F3
:1006700020329046FFF7B2FF04460F4640EA0A00D8
:1006800041EA0B0153465A46084313D0114653EA38
:10069000010019D0C8F140025046FFF7AEFF0546F1
:1006A0000E46504659464246FFF798FF084305D08C
:1006B000012004E020463946BDE8F08D00200543C6
:1006C00046EAE0762C4337430A986305E40AA0EB38
:1006D00008000022FD0A44EA47540A3002D50020EF
:1006E0000146E9E7010510196941DDE908450019EE
:1006F0006941BDE8F04DA2E72DE9F04D81EA030420
:1007000004F0004B21F0004514464FF0000A23F09E
:10071000004150EA050220D054EA01021DD0C5F381
:100720000A570246C5F31303C1F31300C1F30A5677
:1007300040F4801543F48013A7EB0608101BD6463F
:1007400008F2FD3873EB050002D308F1010801E05F
:1007500092185B41B8F1000F03DA00200146BDE8B2
:10076000F08D00204FF48011064684460EE0171BE2
:1007700073EB050705D3121B63EB050306434CEA35
:10078000010C49084FEA300092185B4150EA01071A
:10079000EDD152EA030012D082EA040083EA050197
:1007A000084305D0101BAB4106D20122002306E00E
:1007B00000224FF0004302E06FF0010253101AEBE9
:1007C00006004CEB085110EB0A0041EB0B01BDE8B1
:1007D000F04DFFF734BFC1F30A52C1F3130140F2E9
:1007E000FF3341F480119A4202DA0020014670473B
:1007F00040F233439A42A2F2334202DC5242FFF704
:10080000FCBEFFF7EBBE0000064C074D06E0E068BB
:1008100040F0010394E8070098471034AC42F6D347
:10082000FFF7C8FC2835000848350008FEE700003F
:10083000014800F0A0B900005C030020014800F06E
:100840009AB900008403002038B50E4C40F2FF1521
:1008500025600025A560E560082525610A4C050A8C
:1008600025706070080AA070E170100A2071627132
:10087000180AA071E3716B4622460249034800F052
:100880001BF838BDD8000020010000205C030020C8
:100890007047704790F82020012A07D0022A05D01F
:1008A000416A41F480214162012070470068426939
:1008B0000A43426100207047F0B590F82050046868
:1008C000A468012D05D0022D03D0416A41F4802196
:1008D00053E014F0406F01D1E5004BD5C4F301643F
:1008E000022C03D9416A41F4000146E00125A540EC
:1008F0001D608D684FF4C0739DB1CE6835434E685E
:1009000045EAC605066803EB0417F5514FF4C275B6
:10091000076805EB04150E697E51097D012905D094
:1009200009E00E88CD6845EA4655EBE701684E5967
:1009300046F480764E511179D2F805504FF4C676C0
:1009400041EA0525016806EB04168D511178D2F8AD
:1009500001204FF4C47541EA0221026805EB041539
:100960005151006803EB0411425842F00102425019
:100970000020F0BD416A41F4001141620120F0BD48
:1009800010B590F82020012A07D0022A05D0416A2C
:1009900041F480214162012010BD3B48D0F8002283
:1009A00042F00102C0F80022D0F8002222F47C526A
:1009B000C0F80022D0F800224B6A42EA0322C0F8B5
:1009C00000220A7D02F01F0301229A40D0F81C3257
:1009D0009343C0F81C32CB69B3B9D0F80C329343BF
:1009E000C0F80C328C894B6864F31F434C6900EBF0
:1009F000C404C4F840320C890B6864F31F434C698B
:100A000000EBC404C4F84432CB69012B16D1D0F8F2
:100A10000C321343C0F80C320C884B6864F31F434C
:100A20004C6900EBC404C4F840320C89CB6864F311
:100A30001F434C6900EBC404C4F844328B69002B9B
:100A4000D0F804320ED01343C0F804320B69002BE7
:100A5000D0F8143208D01343C0F81432096A0129BF
:100A600004D008E09343EFE79343F5E7D0F81C1276
:100A70001143C0F81C12D0F8001221F00101C0F897
:100A80000012002010BD000000640040704730B527
:100A900090F82040012C05D0022C03D0416A41F48B
:100AA00080215DE00468002955D02469A40754D052
:100AB0004FF4D874056804EB01142D5915F00405A2
:100AC000956005682D594ED0ED08556005682C5984
:100AD00004F00204D4604FF4DA74056804EB0114E6
:100AE0002D5905F00F05156105682D59C5F307252A
:100AF000956105682C59240C54614FF4DC7204682C
:100B000002EB0112A4581C700468A458240A5C70FB
:100B10000468A458240C9C700468A258120EDA7061
:100B20004FF4DE72046802EB0112A4581C710468D1
:100B3000A458240A5C710468A458240C9C710468AD
:100B4000A258120EDA71006881B1016941F02001EA
:100B50000161002030BDE468A8E7416A41F400115A
:100B60004162012030BD6D0D1560AFE7C16841F0F5
:100B70002001C160EDE72DE9F05F05460068002423
:100B80004669D0F804908768D0F80CB0D0F810A06F
:100B9000D0F81880F10748D0F90714D001218160FE
:100BA000B80703D5284600F05CFA0CE0780702D5B8
:100BB0004FF4006407E0380702D54FF4805402E098
:100BC000284600F04DFAF80516D529684FF48070D4
:100BD0008860B80503D5284600F045FA0CE0780592
:100BE00002D544F4005407E0380502D544F48044AB
:100BF00002E0284600F036FAF80316D529684FF4CB
:100C000080308860B80303D5284600F02EFA0CE047
:100C1000780302D544F4004407E0380302D544F4D5
:100C2000803402E0284600F01FFA300707D55FEA5B
:100C3000CB6004D52968102044F40074C8607007A4
:100C40004FF0080707D55FEA0B7004D52868C76026
:100C5000284600F099F9B00706D52868C0688007D3
:100C600002D0284600F092F9700607D55FEACA6004
:100C700004D52968102044F480640861B00607D5C3
:100C80005FEA0A7004D528680761284600F0B8F9C1
:100C9000F00606D528680069800702D0284600F0D3
:100CA000B0F9B00308D55FEAC96005D529681020FE
:100CB0004860284600F0A6F9F00307D55FEA0970FE
:100CC00004D528684760284600F0D0F9300446D59E
:100CD0005FEA497040D5F00504D55FEAC87001D0DD
:100CE00044F00104B00504D55FEA887001D544F0F2
:100CF0000204700504D55FEA487001D544F004048D
:100D0000300529D518F0700F26D008F07000402863
:100D100015D006DC102809D020280AD0302816D19A
:100D20000AE050280ED0602811D10EE044F00804EB
:100D30000DE044F010040AE044F0200407E044F021
:100D4000400404E044F0800401E044F48074286826
:100D5000816921F070018161296804204860002CBC
:100D600005D0686A204368622846FFF78FFEBDE819
:100D7000F09F70B5040003D094F8200010B104E097
:100D8000012070BD204600F081F82068016821F044
:100D90000201016000F05CFA0546052604E000F05F
:100DA00057FA401B0A2811D8206840688007F6D4FB
:100DB0002068016841F00101016000F049FA054630
:100DC0000BE000F045FA401B0A2806D9606A40F49F
:100DD0000030606284F82060D2E720684068C00775
:100DE000EFD0207E0128206801683DD021F08001ED
:100DF0000160607E01282068016838D021F0400140
:100E00000160A07E01282068016833D021F0200114
:100E10000160E07E0128206801682ED041F01001B9
:100E20000160207F01282068016829D021F0080195
:100E30000160607F01282068016824D021F004014E
:100E40000160D4E902010843D4E9041211430843C4
:100E50006168491E08432168C86100206062012062
:100E600084F82000002070BD41F08001C0E741F00F
:100E70004001C5E741F02001CAE721F01001CFE7AA
:100E800041F00801D4E741F00401D9E7F0B587B09B
:100E9000044614216846FFF74FFA364B3648DFF810
:100EA000D0E01968D4F800C0334A03250226092788
:100EB00010300024491CF44522D11960012907D1C2
:100EC000016841F000710160006800F00070059059
:100ED000106840F0080010601068CDE9005600F07E
:100EE0000800CDE9047069462448CDE9024500F0C8
:100EF000BFF800220521142000F036FA142032E059
:100F0000DFF87CE0F44530D1D0F800C04CF0806CC4
:100F1000C0F800C0D0F800C001290CF0806CCDF8FA
:100F200014C0196007D1016841F0007101600068C8
:100F300000F000700590106840F00200106010682A
:100F400002AB00F0020005906020CDE9000683E8C6
:100F5000B00069460B4800F08BF8002205214020C4
:100F600000F002FA402000F0F1F907B0F0BD0000F7
:100F7000006400401800002030380240000C02409D
:100F800000680040000402407047000010B50446AD
:100F90008AB017A001F00EF901AB03AA0021204688
:100FA000FFF775FD0398A0F2012006281DD811490E
:100FB000C0B200EB800208700F4901EB420031F82B
:100FC00012300381BDF804305BBA21F81230BDF84D
:100FD000061049BA4180BDF8081049BA81809DF8D1
:100FE0000A10817105A001F0E5F80AB010BD0000FB
:100FF000495100000000002090000020726563004D
:10100000704770477047000070B5044690F82000A4
:10101000012804D0606A40F40020606218E00220D9
:1010200084F820002068016821F00101016000F0CF
:101030000FF905460EE000BF00F00AF9401B0A2830
:1010400008D9606A40F400306062052084F820000E
:10105000012070BD20684068C007EDD1606270BD9E
:10106000704770477047704770477047704700007F
:101070002DE9F84F00224FF0010803254FF00F0E25
:101080000B6808FA02F42340A3426ED14E68012E89
:1010900005D0022E03D0112E01D0122E12D1866857
:1010A0004FEA420C05FA0CF7BE43CF6807FA0CF77B
:1010B000374387604668A6430C79C4F30014944014
:1010C00034434460C668570005FA07FC8C6826EA7A
:1010D0000C06BC403443C4604C68022C01D0122C76
:1010E00013D1D40800EB8404A346D4F8209054070D
:1010F0004FEAD46A0EFA0AF629EA06090E6906FAD8
:101100000AF646EA0906CBF8206004680E7924EA5C
:101110000C0406F00306BE40264306604C68E4005B
:101120006FD53B4C266846F480462660246822F042
:10113000030604F480440094364C3444A446D4F8A6
:1011400008489607360F0EFA06F7BC43324FB842EE
:1011500001D100272EE0314FB84201D1012729E00B
:101160002F4FB84202D1022724E04AE02D4FB84267
:1011700001D103271EE02C4FB84201D1042719E00A
:101180002A4FB84201D1052714E0294FB84201D1B6
:1011900006270FE0274FB84201D107270AE0264F64
:1011A000B84201D1082705E0244FB84201D10927F0
:1011B00000E00A27B7402743CCF80878204E34686F
:1011C0004F689C43FF0300D51C4334601C4E361D02
:1011D00034684F689C43BF0300D51C433460184EED
:1011E000083634684F689C43FF0200D51C433460C6
:1011F000134E0C3634684F689C43BF0200D51C4325
:101200003460521C102AFFF43BAFBDE8F88F000099
:101210004438024000300140000002400004024017
:1012200000080240000C024000100240001402407E
:1012300000180240001C024000200240002402402E
:10124000003C01400AB1816170470904FBE70000DE
:101250000148806870470000200000200248816833
:101260000278114481607047200000200B4810B5BF
:10127000016841F400710160016841F4806101601E
:10128000016841F480710160032000F08DF80020B6
:1012900000F006F800F03EF8002010BD003C0240CF
:1012A00010B5014688B00022192000F05DF8192021
:1012B00000F04CF813480024016841F0010101607E
:1012C000006805A900F001000690684600F018F9D2
:1012D00000F046F90C494000B0FBF1F10C480B4A14
:1012E000491E026040F2E732C0E90324C0E901145C
:1012F00000F028FB10B1012008B010BD044800F038
:101300003DFBF9E74438024040420F000000014035
:10131000EC0300200C4882B0016841F48041016078
:10132000006800F4804000900748001F016841F009
:10133000805101600068002200F0805000900F2171
:10134000901E02B000F010B844380240002809DBBB
:1013500000F01F02012191404009800000F1E020CF
:10136000C0F8001170470000F0B40E4B1B680C462B
:10137000C3F30223C3F10705042D00D90425191D69
:10138000072901D2002300E0DB1E012606FA05F141
:10139000491E214099409E40761E16403143F0BCC4
:1013A00000F018BF0CED00E0064900F007020868E5
:1013B0004FF6FF03184040EA0220034A104308603A
:1013C000704700000CED00E00000FA052DE9F04741
:1013D0000E46050065D0DFF81481D8F80000F7B29A
:1013E00000F00F00B04207D288F80070D8F8000073
:1013F00000F00F00B04254D128683D4C810712D54F
:10140000400703D5206840F4E050206028780007AA
:1014100003D5206840F4604020602068A96820F06F
:10142000F000084320602878C0072DD03049686854
:101430000839012812D0022813D0032811D00968D6
:10144000890700292DDA216821F003010143216079
:10145000FFF7FEFE814641F2883A0EE009688903F3
:10146000EFE709688901ECE7FFF7F2FEA0EB09015D
:10147000514502D90320BDE8F0872068696800F073
:101480000C00B0EB810FEFD1D8F80010404601F00E
:101490000F01B14207D90770006800F00F00B04299
:1014A00001D00120E7E72878400705D52068E968E2
:1014B00020F4E050084320602878000706D5206813
:1014C000296920F4604040EAC100206000F058F82B
:1014D0002168084AC1F30311515CC84006490860FD
:1014E00006480068FFF7DCFE0020C4E7003C02402D
:1014F00008380240043500081C00002024000020A9
:101500000F2202600C4A136803F003034360136860
:1015100003F0F0038360136803F4E053C3601268C0
:101520004FF4E05303EAD20202610448006800F07D
:101530000F0008607047000008380240003C02407D
:101540000448054900680968044AC1F38221515CD6
:10155000C84070471C0000200838024014350008BD
:101560000448054900680968044AC1F34231515CE6
:10157000C84070471C00002008380240143500089D
:10158000154810B5006810F00C02144813D0144927
:10159000042A0FD0082A0ED10F4C241F226823687A
:1015A00002F03F025B0207D52068C0F38810A0FB61
:1015B000010106E0084610BD2168C1F38811A1FBB6
:1015C00000010023FEF76EFE2168C1F30141491CB2
:1015D0004900B0FBF1F010BD083802400024F400CF
:1015E00040787D012DE9F84F04006ED02078DFF8B7
:1015F0003C93C007A9F104054AD009F10400016831
:10160000C1F38101012908D00068C0F381000228DC
:101610000AD1D9F80000400206D52868800337D5E2
:1016200060680028E1D033E06068B0F5803F10D0FA
:10163000B0F5A02F286810D020F4803028602868EA
:1016400020F4802028606068A8B1FFF701FE0646FC
:101650000DE0286840F48030F4E740F480202860F2
:10166000F7E700BFFFF7F4FD801B642873D82868F4
:101670008003F7D50CE0FFF7EBFD064605E000BF61
:10168000FFF7E6FD801B6428F0D828688003F7D4B4
:101690002078DFF89C8280074FF0000A3ED5A348EF
:1016A000001D016811F00C0F08D00068C0F3810024
:1016B00002280BD1D9F80000400207D4286880071F
:1016C00016D5E068012800D112E02BE1E068B8B13E
:1016D0000120C8F80000FFF7BBFD064605E000BF8B
:1016E000FFF7B6FD801B0228C0D828688007F7D511
:1016F0002868216920F0F80040EAC10028600DE068
:10170000C8F800A0FFF7A4FD064604E0FFF7A0FD1F
:10171000801B02281FD828688007F7D4207800078C
:1017200022D5824E83486169703671B10121016012
:10173000FFF78EFD074604E0FFF78AFDC01B022875
:1017400009D830688007F7D50EE0C0F800A0FFF791
:101750007FFD074605E082E0FFF77AFDC01B022807
:101760007DD830688007F7D42078400768D5DFF847
:10177000BCB100270BF13C0BDBF80000C0000BD420
:10178000DBF8001041F08051CBF80010DBF80000CE
:10179000012700F080500090674E3068C00510D4DB
:1017A000306840F480703060FFF752FD009005E033
:1017B000FFF74EFD0099401A022850D83068C00546
:1017C000F6D55A4EA0686C3601280FD0052830682F
:1017D00010D020F001003060306820F0040030604C
:1017E000A068B8B1FFF734FD00900FE0306840F01A
:1017F0000100F4E740F004003060F7E7FFF728FD50
:101800000099411A41F28830814266D830688007D9
:10181000F4D50EE0FFF71CFD009007E0FFF718FD80
:101820000099411A41F28830814256D830688007C9
:10183000F4D42FB1DBF8001021F08051CBF8001068
:10184000A069C8B33949091D0968C1F3810102299A
:101850004AD00228504607D0C8F8600000E03CE0BB
:10186000FFF7F6FC04463BE04746C8F86000FFF788
:10187000EFFC064605E000BFFFF7EAFC801B0228EC
:101880002BD828688001F7D4D4E907010843A16A5E
:101890002A4A490802EB0141626A41EA821108437F
:1018A00094F82C1040EA0161C9F800100120386654
:1018B000FFF7CEFC044606E036E000BFFFF7C8FCA9
:1018C000001B022809D828688001F7D52CE000BF4A
:1018D000FFF7BEFC001B022802D90320BDE8F88FE9
:1018E00028688001F4D41FE00128F7D0D9F800005F
:1018F000E26900F48001914214D1226A00F03F01B4
:1019000091420FD147F6C071626A0140914209D1FC
:10191000A26A00F44031914204D1E16A00F07060A3
:10192000884201D00120D9E70020D7E704380240DF
:1019300000004742800E4742007000400000FFFF59
:101940007047704710B5040003D094F83D0010B103
:1019500007E0012010BD002084F83C00204600F084
:101960000CF8022084F83D00211D206800F0F6FAF2
:10197000012084F83D00002010BD70470168CA684E
:1019800042F00102CA600068816801F0070106297F
:1019900003D0016841F001010160002070477047E9
:1019A00070B50446006801694FF00005C943890716
:1019B00015D4C168C943890711D4E91E016101200A
:1019C0002077206880698007204602D0FFF7E7FF74
:1019D00004E000F098F8204600F096F8257720689B
:1019E0000169C943490717D4C168C943490713D4DA
:1019F0006FF004010161022020772068806910F4F3
:101A0000407F204602D0FFF7CAFF04E000F07BF8D9
:101A1000204600F079F8257720680169C943090755
:101A200016D4C168C943090712D46FF008010161D7
:101A3000042020772068C0698007204602D0FFF785
:101A4000AEFF04E000F05FF8204600F05DF8257777
:101A500020680169C943C90617D4C168C943C906CA
:101A600013D46FF010010161082020772068C0694D
:101A700010F4407F204602D0FFF791FF04E000F011
:101A800042F8204600F040F8257720680169C943F4
:101A9000C90708D1C168C943C90704D1891E0161BA
:101AA000204600F033F820680169C943090609D4CB
:101AB000C168C943090605D46FF080010161204661
:101AC000FFF73EFF20680169C943490609D4C16890
:101AD000C943490605D46FF040010161204600F07A
:101AE0001FF820680169C94389060BD4C168C9433E
:101AF000890607D46FF0200101612046BDE87040DF
:101B0000FFF71FBF70BD70477047000000680349B2
:101B1000884201D1FFF7A2BB7047000000000140DE
:101B2000704770B5040004D094F83900002510B156
:101B300006E0012070BD84F83850204600F022F8FD
:101B4000242084F839002068C16821F40051C16064
:101B5000204600F067FA2068016921F49041016194
:101B60002068416921F02A0141612068C16841F47F
:101B70000051C160E563202084F8390084F83A0000
:101B8000002070BD10B586B0044614216846FEF7EB
:101B9000D3FB13492068884220D1124800210268F3
:101BA00042F400320260006800F4003005900D48F5
:101BB0001038026842F001020260006800F0010083
:101BC00005900C2000900220CDE901010320039034
:101BD0000720049069460448FFF74AFA06B010BD92
:101BE0000044004040380240000002402DE9F84324
:101BF000044690F839001F4616460D46202850D15D
:101C0000B5B1AEB194F8380001284AD0012084F86B
:101C100038004FF00008C4F83C80212084F83900D7
:101C2000FFF716FBA6848146E68484F8388026E018
:101C30000120BDE8F883E08C401EE084A0684B469C
:101C4000B0F5805F4FF000024FF080012046009712
:101C500003D000F07BFAE8B90DE000F077FAC8B9DC
:101C600028882168C0F308004860206908B16D1C0D
:101C700005E0AD1C03E0216815F8010B4860E08C1D
:101C80000028D8D14B46002240212046009700F082
:101C90005DFA08B10320CCE7202084F83900002049
:101CA000C7E70220C5E7FEE7104810B50E490160FE
:101CB0000321416000214FF04072C0E902124FF44D
:101CC000102202614FF40012426101764176817662
:101CD000C17601774177FFF74CF8002803D0BDE8C3
:101CE0001040FEF7D6BD10BD006400405C0300202C
:101CF000114810B50F490160032141604FF0804148
:101D000081604FF04071C1604FF4102101614FF4C8
:101D1000001141610021017641768176C17601771B
:101D20004177FFF726F8002803D0BDE81040FEF702
:101D3000B0BD10BD006800408403002000B587B02E
:101D40001C2206496846FEF7DEFA0021684600F0CC
:101D500001FF0349086007B000BD0000E834000837
:101D6000140000202DE9F04186B014216846FEF7EA
:101D7000E3FA2A480025016841F002010160016888
:101D800001F002010591016841F00801016001685C
:101D900001F008010591016841F0800101600168CE
:101DA00001F080010591016841F0010101600168C5
:101DB00001F001010591016841F010010160016825
:101DC00001F010010591016841F0200101600068F7
:101DD000012200F02000124FD4020590214638461F
:101DE000FFF730FA0122DFF83C8096033146404687
:101DF000FFF728FA00940124CDE9014569463846E9
:101E00000394FFF735F90096CDE901456946404650
:101E10000394FFF72DF906B0BDE8F0813038024099
:101E200000100240001402400C4810B50A4901603D
:101E30004FF4E1314160002181600C22C160C0E9B2
:101E400004128161C161FFF76CFE002803D0BDE878
:101E50001040FEF71EBD10BD00440040AC03002042
:101E6000FEE7704744F6206404A000F0A3F923467F
:101E70001A4611460846FEF7E7FCF5E774657374E9
:101E80000A00000010B5502080F31188BFF34F8F77
:101E9000BFF36F8F01F062FA18B104494FF0805020
:101EA0000860002080F3118810BD000004ED00E000
:101EB00030B593B030216846FEF73EFA14210CA8E5
:101EC000FEF73AFA19480025016841F08051016097
:101ED000006800F0805011901548016821F44041DD
:101EE00041F4804101600068022400F440401190F8
:101EF0000120039010200490009406940820CDE95E
:101F000007505420CDE9090404200B906846FFF7E0
:101F100069FB0CA90F2081E83100E0020F901090BE
:101F200002210CA8FFF752FA13B030BD403802402E
:101F3000007000400548016841F4700101600349E8
:101F40004FF00060803908607047000088ED00E0C5
:101F50000148FFF725BD0000EC030020F0B5026842
:101F6000254C264D264E274F274B4FF0804CA04244
:101F700009D0604507D0A84205D0B04203D0B8428E
:101F800001D0984204D122F0700E4A6842EA0E0253
:101F9000A0421BD0604519D0A84217D0B04215D03E
:101FA000B84213D0984211D0184DA8420ED0184D07
:101FB000A8420BD0174DA84208D0174DA84205D013
:101FC000164DA84202D0164DA84203D122F4407506
:101FD000CA682A434D6922F080022A4302608A6857
:101FE000C2620A688262A04201D0984201D10969A6
:101FF000016301214161F0BD000001400004004087
:1020000000080040000C0040000401400040014076
:10201000004401400048014000180040001C0040FE
:10202000002000402DE9F041044600680169E268A3
:1020300021F44051114301612169A068E26908431C
:102040006169114308432168CA6849F20C639A43E5
:102050000243CA6020684169A26921F440711143BA
:102060004161E069192764253226B0F5004F354AF1
:10207000354920684FF0000806D0884201D09042D0
:1020800036D1FFF76DFA35E0884201D0904202D197
:10209000FFF766FA01E0FFF753FA61684A18A0FB00
:1020A000070148EB0803FEF7FDF80146B0FBF5F029
:1020B0000201B1FBF5F06FF01803584301EB80000B
:1020C00006EBC000B0FBF5F000F0F80002EB4002B8
:1020D000B1FBF5F0584301EB800006EBC000B0FB0C
:1020E000F5F000F00700216810448860BDE8F08139
:1020F000FFF726FA61688B0F8A00A0FB0701FEF745
:10210000D1F80146B0FBF5F06FF01802504301EB37
:10211000800006EB0010B0FBF5F000F0F002B1FB20
:10212000F5F002EB0012B1FBF5F06FF01803584325
:1021300001EB800006EB0010B0FBF5F000F00F00A3
:10214000D1E7000000140140001001402DE9F041EA
:10215000984617460E460446069D1DE0681C1BD097
:102160002DB1FFF775F8A0EB0800A84214D920683C
:10217000C16821F4D071C1602068416921F001017A
:102180004161202084F8390084F83A00002084F866
:1021900038000320BDE8F0812068006836EA0000BE
:1021A00004D00020B842D9D00020F3E70120F9E79D
:1021B000FEE700000FB4054B10B503A9044A0298CE
:1021C00000F0DAF810BC5DF814FB0000012B0008E9
:1021D0008C0000200907090E002804DB00F1E02034
:1021E00080F80014704700F00F0000F1E02080F844
:1021F000141D704702E008C8121F08C1002AFAD156
:1022000070477047002001E001C1121F002AFBD176
:10221000704700002DE9FF5FDDE90220010DDDF8C8
:1022200038B0024318D044F61050A1F2FF314143B8
:102230000D140F98012820D0A5EB0B00401C5FEA7D
:10224000000A4FF00004474EDFF81C91A0465046AC
:1022500016D5CAF1000728E00F98012443A20128EF
:1022600008D0002100980F9BC0E90021C0E902437B
:10227000BDE8FF9F6FEA0B01F4E7CBF10000DEE75A
:10228000074612E0F80707D0224633464046494643
:10229000FEF704F980468946224633461046194621
:1022A000FEF7FCF804460E467F10002FEAD1DDE968
:1022B0000201BAF1000F42464B4602DAFEF7EEF891
:1022C00001E0FEF719FA04460E460022284BFEF7FD
:1022D00057F903D84FF0FF30014607E00022254BA5
:1022E00020463146FEF733F8FEF775FA102409E070
:1022F000002C0ADB0A220023FDF7D4FF019B3032B9
:102300001A55641E50EA0102F2D1641C019AC4F10C
:10231000110314440F9A012A03D0012208430DD15E
:102320000AE0084304D000204FF0110B0F9080E723
:10233000A3EB0B056D1E0DE05B4504DD4FF00002C5
:1023400005F1010504E003DA4FF00002A5F10105F3
:10235000002AECD000980F99C0E90231C0E900458D
:1023600086E70000000024400000F03F300000003D
:102370000000F0430000E03F2DE9FF4F95B09B4681
:102380008946064600250FE2252877D100242746F6
:10239000F84A0121059400E0044316F8013F203B70
:1023A00001FA03F01042F7D130782A2811D06FF0EB
:1023B0002F033078A0F13002092A16D8059A44F08C
:1023C000020402EB820203EB42021044761C0590E9
:1023D000EFE759F8042B0592002A03DA504244F43F
:1023E0000054059044F00204761C30782E2816D153
:1023F00016F8010F44F004042A280DD06FF02F02C4
:102400003078A0F13003092B09D807EB870302EBE2
:102410004303C718761CF3E759F8047B761C307821
:102420006C280FD006DC4C2817D068280DD06A28FD
:1024300014D104E0742810D07A280FD10DE044F4B0
:1024400000140AE044F4801401E044F4401472786B
:10245000824202D104F58014761C761C30786628FE
:102460000BD013DC582877D009DC002875D045281C
:10247000F6D04628F4D047281AD19DE118E0632809
:1024800035D0642879D0652812D195E1702873D0B1
:1024900008DC6728F1D069286FD06E280DD06F282E
:1024A00006D1B5E073282CD0752875D0782874D063
:1024B0005A46179990476D1C75E1C4F302500228E3
:1024C00009D003280DD0D9F8001004280DD00D60D4
:1024D00009F1040967E1D9F80010EA17C1E90052CF
:1024E000F6E7D9F800100D80F2E70D70F0E719F863
:1024F000041B8DF8001000208DF80100EA46012031
:1025000003E059F804AB4FF0FF3061074FF00001D2
:1025100002D40DE008F101018846B9420FDA804586
:10252000F8DB1AF808100029F4D108E008F10101DD
:1025300088468142FADB1AF808100029F6D105987E
:102540005B46A0EB080721463846179A00F094FA3C
:10255000284400EB080507E04DE029E10DE01AF8FA
:10256000010B5A4617999047B8F10108F7D25B461C
:1025700021463846179A13E142E00A220092C4F33A
:1025800002524FF0000A022A08D059F804CB032A5D
:102590004FEAEC710AD00DE029E02AE009F10701C9
:1025A00021F00702F2E802C1914609E00FFA8CFC23
:1025B0004FEAEC71042A03D14FFA8CFC4FEAEC711C
:1025C000002907DA0A460021DCF1000C61EB020168
:1025D0002D2202E0220504D52B228DF804200122B1
:1025E00003E0E20701D02022F7E7904659E00A21F4
:1025F00002E010220DE010214FF0000A00910BE0E4
:1026000010224FF0000A44F004040827009203E06F
:1026100008224FF0000A0092C4F30252022A05D0A9
:1026200059F804CB0021032A08D009E009F1070179
:1026300021F00702F2E802C1914605E01FFA8CFC86
:10264000042A01D10CF0FF0C4FF00008220728D516
:10265000702806D0009B83F0100353EA0A0305D0CC
:102660000EE040228DF80420012208E05CEA01021D
:1026700006D030228DF804208DF805000222904605
:10268000009B83F0080353EA0A030AD15CEA0102C3
:1026900001D1620705D530228DF804204FF00108E2
:1026A0007F1E582804D034A003900EA802900DE09D
:1026B00036A0F9E753466046009AFDF7F3FD8446DD
:1026C0000398825C0298401E029002705CEA01004E
:1026D000F0D1029806A9081A00F1200A600702D575
:1026E00024F4803400E00127574502DDA7EB0A00FF
:1026F00000E0002000EB0A01009005984144401AD8
:102700000590E00306D45B462146179A059800F031
:10271000B3F90544002706E001A85A46C05D1799A1
:1027200090476D1C7F1C4745F6DBE0030CD55B46EC
:102730002146179A059800F09FF9054404E03020DF
:102740005A46179990476D1C0099481E0090002921
:10275000F5DC08E0029802995A460078491C02917B
:10276000179990476D1CBAF10001AAF1010AF1DC3A
:1027700065E1000009280100303132333435363745
:1027800038396162636465660000000030313233BD
:10279000343536373839414243444546000000005D
:1027A00000F058F90544761C307800287FF4ECAD31
:1027B00019B02846BDE8F08F620700D4062709F15A
:1027C000070222F0070CFCE80223E14603F0004870
:1027D0005FEA080C02D00FF2702C0DE05FEA045C97
:1027E00002D50FF2682C07E05FEAC47C02D00FF23A
:1027F000602C01E0AFF2700C4FF0FF3823F0004383
:10280000CDF850C065280CD006DC452809D04628F4
:102810001DD047283DD13DE0662818D067287ED1DD
:1028200038E00021112F01DB112000E0781CCDE9F8
:10283000000106A90EA8FFF7EDFCDDE90F010E9AD5
:1028400003910021009207F1010A04914DE04FF03D
:1028500000400097CDE9011006A90EA8FFF7DAFCA9
:10286000DDE90F0203920E9B11990022DDF80CA006
:102870000093049211B9791C00EB010AB7EB0A002E
:1028800004D4C0F1FF3007F1010A0490AAEB07005D
:10289000019044E0012F00DA01270021112F01DD12
:1028A000112000E03846CDE9000106A90EA8FFF787
:1028B000B1FCDDE90F010E9A039100210491009211
:1028C000BA4621070CD40399514500DA8A46BAF179
:1028D000010F05DD009AAAF10101515C302908D0F1
:1028E000B84202DA10F1040F06DA0121CDE9011035
:1028F00015E0AAF10101E9E7002805DC049901448B
:102900000491AAEB000102E0411C514500DD8A461A
:102910000499401A401C01904FF00040029020079B
:1029200004D40198504501DBCDF8048000208DF8D7
:102930004F0002980DF14F07B0F1004F25D02B202A
:102940000E9002984FF0020800280CDA40420290E4
:102950002D200E9007E00A210298FDF729FE303164
:10296000029007F8011DB8F10001A8F10108F2DC9E
:1029700002980028EFD1791E0E980870307800F088
:10298000200040F0450007F8020D12A8C01B00F11E
:1029900007081498007800B1012000EB0A010198A3
:1029A00001EBE07105984144401A401E0590E00398
:1029B00006D45B462146179A059800F05DF8054459
:1029C0001498007818B15A46179990476D1CE00387
:1029D00024D55B462146179A059800F04DF805442A
:1029E0001CE00498002807DBDDE90301884203DDD1
:1029F0000098405C179901E0179930205A4690479B
:102A0000049805F10105401C04900198401E0190B6
:102A100004D12E205A46179990476D1CBAF1000137
:102A2000AAF1010ADDDC05E017F8010B5A461799F7
:102A300090476D1CB8F10001A8F10108F4DC5B4679
:102A40002146179A0598ABE62D0000002B000000E8
:102A5000200000002DE9F041044600251E461746DF
:102A6000880404D405E039462020B0476D1C641E5C
:102A7000F9D52846BDE8F0812DE9F041044600254E
:102A80001E469046C80301D5302700E02027880461
:102A900004D505E041463846B0476D1C641EF9D5A3
:102AA0002846BDE8F081000000B58BB00020012170
:102AB000CDE90601089100900190029003900590E5
:102AC000049069460C48FDF75BFF0B48FEF79CFA43
:102AD00002210948FDF7DEFE0E20099005906946A7
:102AE0000648FDF74DFF0548FEF78EFA0221034820
:102AF000FDF7D0FE0BB000BD5C0300208403002076
:102B000013B54FF6FF73012269460248FFF76EF8CE
:102B100000981CBDAC030020FEF7A8FBFFF7C8F926
:102B2000FFF720F9FFF780F9FFF7BEF8FFF7E0F8AD
:102B3000FFF7BAFFFFF702F900F007F8FEE70146DA
:102B40000020842900D0C81C704710B500F0C8FAD6
:102B5000002010BD7FB50D4604464169B0F908005C
:102B600081B1A16971B1FFF7EAFFD4E905128DE8DF
:102B70000700D4E900102B46226900F0C4FB039043
:102B800004B070BDFFF7DBFF03A9CDE90001208A87
:102B90002B4682B2D4E9001000F088FB012801D056
:102BA0000020EDE70398EBE72DE9F041054600F042
:102BB00023FA2E4C2069401C206120682C4F10B154
:102BC000E06940B32DE025602069012829D1002665
:102BD00006EB860007EB800000F0F4F9761C072E68
:102BE000F6D323488C3000F0EDF92148A03000F0F6
:102BF000E9F91F48B43000F0E5F91D48C83000F08D
:102C0000E1F91B48DC3000F0DDF919488C306060D8
:102C10001430A06005E02068E96AC06A884200D8E4
:102C20002560E06A401CE062E96A0120A2698840F0
:102C30001043A06101EB810007EB8000291D00F02B
:102C4000CFF900F0F9F9E06900280CD02068E96AB2
:102C5000C06A884207D207494FF080500860BFF32E
:102C60004F8FBFF36F8FBDE8F08100002C00002074
:102C70002C04002004ED00E010B5044690F851004B
:102C800058B101280CD002280FD0502080F31188B1
:102C9000BFF34F8FBFF36F8FFEE7206B00F0E0F9BB
:102CA0002046BDE8104000F0DBB910BD10484FF4DD
:102CB0007051420706D0C01D0D4920F00700411A8F
:102CC000C1F570510B4A00230144C2E900030839E1
:102CD000103A21F0070111604B600B600B1AC0E93C
:102CE000001393604FF000405360D06070470000C5
:102CF0001C05002078000020144E154CA6F1C807D2
:102D00004FF08058DFF84C9012E000BF00F074F9EB
:102D1000F068C568281D00F037F92069401E206161
:102D2000E068401EE06000F087F92846FFF7A4FF46
:102D3000E0680028EAD138680128F9D9C9F800808C
:102D4000BFF34F8FBFF36F8FF2E70000F404002052
:102D50002C00002004ED00E02DE9F0479A46DDE963
:102D6000098481466FF00303206B03EB8202104459
:102D7000089E20F00707780707D0502080F31188BD
:102D8000BFF34F8FBFF36F8FFEE7002561B10020C7
:102D900023180A5C83F834200A5C12B1401C102806
:102DA000F6D384F8435001E084F83450072E00D362
:102DB0000626E662C4E91165201D00F00EF904F153
:102DC000180000F00AF92461C6F107006462A061EE
:102DD000E56484F8505052464946384600F0BEF843
:102DE0002060B8F1000F01D0C8F80040BDE8F087BE
:102DF00030B5114900E011460A688242FBD34B68A6
:102E00005C18844203D1406818444860084643680F
:102E10001C18944209D1084C103C2468A24209D0E5
:102E200052681A4442600A6812680260814200D007
:102E3000086030BD0460F9E778000020064841686A
:102E4000096829B14168C968C96849680163704760
:102E50004FF0FF31FAE700002C00002008484068DE
:102E6000401C4FF0500080F3118804D0BFF34F8F07
:102E7000BFF36F8FFEE7BFF34F8FBFF36F8FFEE798
:102E8000800000202DE9F0410546002700F05EF9A2
:102E9000314E306808B9FFF709FFF06805424BD1A1
:102EA000C5B3083568070ED005F00700C0F108006B
:102EB0000544680707D0502080F31188BFF34F8F77
:102EC000BFF36F8FFEE72DB37068854234D8224878
:102ED000103001460C6801E020460C466168A942AA
:102EE00002D221680029F7D131688C4224D00768CA
:102EF0002168016060680837411B10290FD96019EB
:102F0000420708D0502080F31188BFF34F8FBFF3E2
:102F10006F8FFEE710E041606560FFF769FF616851
:102F20007068401A7060B268904200D2B060F06879
:102F300001430020C4E9000100F074FA780707D0CB
:102F4000502080F31188BFF34F8FBFF36F8FFEE7E0
:102F50003846BDE8F08100006800002010B5031F6E
:102F60004FF080741C601B1F21F001011960191FB4
:102F7000044B0B6014390A60091F6FF002024438D9
:102F80000A6010BD5D2E0008D0E9013201699A6027
:102F9000D0E901235A604A68824201D182684A60BE
:102FA000002202610868401E08600868704700003F
:102FB000034B036003F154000860802010607047E9
:102FC0000801002000F108014FF0FF32C0E90112B2
:102FD000C1600161002101607047002101617047FB
:102FE00042684A6093688B60936859609160086199
:102FF0000168491C01607047502080F31188BFF3BD
:103000004F8FBFF36F8F0A494868401C4860012802
:103010000CD10848006810F0FF0F07D0502080F353
:103020001188BFF34F8FBFF36F8FFEE7704700002B
:103030008000002004ED00E00849486828B1401EE7
:10304000486001D180F311887047502080F31188C7
:10305000BFF34F8FBFF36F8FFEE7000080000020AB
:1030600070B5002827D0144DA0F108046168E86805
:10307000014207D1502080F31188BFF34F8FBFF377
:103080006F8FFEE722683AB1502080F31188BFF3BA
:103090004F8FBFF36F8FFEE78143616000F056F8FA
:1030A00060686968084468602046FFF7A1FEBDE8D3
:1030B000704000F0B7B970BD680000204FF0E0200C
:1030C00000210161816105494FF47A720968B1FB01
:1030D000F2F1491E41610721016170471C00002087
:1030E00010B586B00024039405AA04A903A804948B
:1030F000FFF75EFFDDE903010094CDE90110002335
:103100000EA11048059A00F0FEF80F490028486308
:1031100011D0502080F31188BFF34F8FBFF36F8F12
:103120004FF0FF3008630120C8614C6106B0BDE874
:10313000104000F041B806B010BD000049444C45B5
:1031400000000000F92C00082C0000200248816BD0
:10315000491C8163704700002C0000201448816BDB
:1031600011B1012141627047002141628169B1FAC8
:1031700081F1C1F11F0101EB81020E4951F82230AA
:103180006BB101EB820101F108034A6852684A60A1
:103190009A4201D152684A60D1680160704750205C
:1031A00080F31188BFF34F8FBFF36F8FFEE70000EE
:1031B0002C0000202C0400201CB537480168374A39
:1031C000914207D1502080F31188BFF34F8FBFF396
:1031D0006F8FFEE700683149491E884207D15020B1
:1031E00080F31188BFF34F8FBFF36F8FFEE72C4939
:1031F00008780190FF20087008788DF800009DF88D
:1032000000009DF8002000F0F000904207D0502010
:1032100080F31188BFF34F8FBFF36F8FFEE79DF8E8
:103220000000204B00F0500018700720986005E067
:103230009DF8002052008DF80020401E9DF80020CF
:103240001206F5D49860032807D0502080F3118827
:10325000BFF34F8FBFF36F8FFEE74FF4407098605E
:10326000019808700C482030016841F47001016039
:10327000016841F070410160FFF720FF00205860B5
:10328000FCF7C2FF0848016841F040410160FCF7CB
:10329000A7FF00201CBD000000ED00E071C20F413F
:1032A00000E400E08000002034EF00E02DE9FF5F43
:1032B0008346DDE90E87994616468A469000FFF759
:1032C000E1FD05001CD05420FFF7DCFD040014D004
:1032D0000020256384F85100CDE90240CDE9008744
:1032E0004B46324651465846FFF736FD2046FFF71B
:1032F0005BFC012004B0BDE8F09F2846FFF7B0FE5C
:103300004FF0FF30F6E7F0B585B0DDE90B640A9DBC
:10331000A6B1DCB1542700972663022684F85160D9
:10332000002604AFCDE90246CDE90057FFF714FDB2
:103330002046FFF739FC049805B0F0BD502080F31B
:103340001188BFF34F8FBFF36F8FFEE7502080F3DC
:103350001188BFF34F8FBFF36F8FFEE72DE9F04168
:103360002E4C0027A06B40B1206A401C2062606A8E
:1033700000B101273846BDE8F0816669761C6661B8
:1033800013D16068006838B1502080F31188BFF312
:103390004F8FBFF36F8FFEE76068A1686160A06028
:1033A000A06A401CA062FFF749FD206BDFF8708027
:1033B000864209D36068006880B16068C068C568EB
:1033C000686886420DD220632068C06A00EB8001E5
:1033D00058F821000128CAD90127C8E74FF0FF306B
:1033E000F1E7281DFFF7D0FDA86A18B105F1180014
:1033F000FFF7CAFDE86A0121A26981401143A1617A
:1034000000EB800108EB8100291DFFF7E9FDE86A68
:103410002168C96A8842CDD30127CBE72C00002060
:103420002C0400202DE9F0472C4D00242746A86BE2
:1034300038B1FFF7E1FDA86B401EA863A86B40B14F
:1034400046E0502080F31188BFF34F8FBFF36F8F9A
:10345000FEE72969224E0120D1B3A6F1B4098046C6
:103460003068E8B1F068C46804F11800FFF78CFD1B
:10347000201DFFF789FDE06AAA6908FA00F11143EF
:10348000A96100EB800109EB8100211DFFF7A8FD78
:10349000E06A2968C96A8842E2D3C5F82480DFE778
:1034A0000CB1FFF7CBFC2C6A44B14646FFF756FF40
:1034B00000B16E62641EF9D100202862686A38B1DA
:1034C0000849012738070860BFF34F8FBFF36F8F9C
:1034D000FFF7B2FD3846BDE8F08700002C00002061
:1034E000E004002004ED00E01C350008651E000823
:1034F00000000000000000000001000000000000CB
:1035000000000000000000000000000001020304B1
:1035100006070809000000000102030454657374E3
:103520005461736B00000000483500080000002063
:1035300090000000F4210008D83500089000002019
:103540009044000004220008000000000000000079
:10355000000000000000000000000000000000006B
:10356000000000000024F400010000001000000032
:10357000000000000000000000000000000000004B
:10358000000000000000000000000000000000003B
:10359000000000000000000000000000000000002B
:1035A000000000000000000000000000000000001B
:1035B000000000000000000000000000000000000B
:1035C000000000000000000000000000AAAAAAAA53
:0835D0000000000000000000F3
:04000005080001AD41
:00000001FF
